{
  "abi": [
    {
      "inputs": [
        {
          "internalType": "string",
          "name": "_name",
          "type": "string"
        },
        {
          "internalType": "string",
          "name": "_symbol",
          "type": "string"
        }
      ],
      "stateMutability": "nonpayable",
      "type": "constructor"
    },
    {
      "inputs": [],
      "name": "WithdrawTransfer",
      "type": "error"
    },
    {
      "anonymous": false,
      "inputs": [
        {
          "indexed": true,
          "internalType": "address",
          "name": "owner",
          "type": "address"
        },
        {
          "indexed": true,
          "internalType": "address",
          "name": "spender",
          "type": "address"
        },
        {
          "indexed": true,
          "internalType": "uint256",
          "name": "id",
          "type": "uint256"
        }
      ],
      "name": "Approval",
      "type": "event"
    },
    {
      "anonymous": false,
      "inputs": [
        {
          "indexed": true,
          "internalType": "address",
          "name": "owner",
          "type": "address"
        },
        {
          "indexed": true,
          "internalType": "address",
          "name": "operator",
          "type": "address"
        },
        {
          "indexed": false,
          "internalType": "bool",
          "name": "approved",
          "type": "bool"
        }
      ],
      "name": "ApprovalForAll",
      "type": "event"
    },
    {
      "anonymous": false,
      "inputs": [
        {
          "indexed": true,
          "internalType": "uint256",
          "name": "tokenId",
          "type": "uint256"
        }
      ],
      "name": "JobClaimed",
      "type": "event"
    },
    {
      "anonymous": false,
      "inputs": [
        {
          "indexed": true,
          "internalType": "uint256",
          "name": "tokenId",
          "type": "uint256"
        }
      ],
      "name": "JobConfirmedComplete",
      "type": "event"
    },
    {
      "anonymous": false,
      "inputs": [
        {
          "indexed": true,
          "internalType": "uint256",
          "name": "tokenId",
          "type": "uint256"
        }
      ],
      "name": "JobCreated",
      "type": "event"
    },
    {
      "anonymous": false,
      "inputs": [
        {
          "indexed": true,
          "internalType": "uint256",
          "name": "tokenId",
          "type": "uint256"
        }
      ],
      "name": "JobFinished",
      "type": "event"
    },
    {
      "anonymous": false,
      "inputs": [
        {
          "indexed": true,
          "internalType": "address",
          "name": "previousOwner",
          "type": "address"
        },
        {
          "indexed": true,
          "internalType": "address",
          "name": "newOwner",
          "type": "address"
        }
      ],
      "name": "OwnershipTransferred",
      "type": "event"
    },
    {
      "anonymous": false,
      "inputs": [
        {
          "indexed": true,
          "internalType": "address",
          "name": "from",
          "type": "address"
        },
        {
          "indexed": true,
          "internalType": "address",
          "name": "to",
          "type": "address"
        },
        {
          "indexed": true,
          "internalType": "uint256",
          "name": "id",
          "type": "uint256"
        }
      ],
      "name": "Transfer",
      "type": "event"
    },
    {
      "inputs": [
        {
          "internalType": "address",
          "name": "spender",
          "type": "address"
        },
        {
          "internalType": "uint256",
          "name": "id",
          "type": "uint256"
        }
      ],
      "name": "approve",
      "outputs": [],
      "stateMutability": "nonpayable",
      "type": "function"
    },
    {
      "inputs": [
        {
          "internalType": "address",
          "name": "owner",
          "type": "address"
        }
      ],
      "name": "balanceOf",
      "outputs": [
        {
          "internalType": "uint256",
          "name": "",
          "type": "uint256"
        }
      ],
      "stateMutability": "view",
      "type": "function"
    },
    {
      "inputs": [
        {
          "internalType": "uint256",
          "name": "tokenId",
          "type": "uint256"
        }
      ],
      "name": "cancelJob",
      "outputs": [
        {
          "internalType": "uint256",
          "name": "",
          "type": "uint256"
        }
      ],
      "stateMutability": "nonpayable",
      "type": "function"
    },
    {
      "inputs": [
        {
          "internalType": "uint256",
          "name": "tokenId",
          "type": "uint256"
        },
        {
          "internalType": "address",
          "name": "recruiter",
          "type": "address"
        },
        {
          "internalType": "address",
          "name": "executer",
          "type": "address"
        }
      ],
      "name": "claimJob",
      "outputs": [
        {
          "internalType": "uint256",
          "name": "",
          "type": "uint256"
        }
      ],
      "stateMutability": "nonpayable",
      "type": "function"
    },
    {
      "inputs": [
        {
          "internalType": "uint256",
          "name": "_tokenId",
          "type": "uint256"
        }
      ],
      "name": "creatorConfirmJobCompletion",
      "outputs": [],
      "stateMutability": "nonpayable",
      "type": "function"
    },
    {
      "inputs": [],
      "name": "currentTokenId",
      "outputs": [
        {
          "internalType": "uint256",
          "name": "",
          "type": "uint256"
        }
      ],
      "stateMutability": "view",
      "type": "function"
    },
    {
      "inputs": [
        {
          "internalType": "uint256",
          "name": "tokenId",
          "type": "uint256"
        },
        {
          "internalType": "address",
          "name": "executer",
          "type": "address"
        }
      ],
      "name": "finishJob",
      "outputs": [
        {
          "internalType": "uint256",
          "name": "",
          "type": "uint256"
        }
      ],
      "stateMutability": "nonpayable",
      "type": "function"
    },
    {
      "inputs": [
        {
          "internalType": "uint256",
          "name": "",
          "type": "uint256"
        }
      ],
      "name": "getApproved",
      "outputs": [
        {
          "internalType": "address",
          "name": "",
          "type": "address"
        }
      ],
      "stateMutability": "view",
      "type": "function"
    },
    {
      "inputs": [
        {
          "internalType": "address",
          "name": "payee",
          "type": "address"
        }
      ],
      "name": "getBalances",
      "outputs": [
        {
          "internalType": "uint256",
          "name": "",
          "type": "uint256"
        },
        {
          "internalType": "uint256",
          "name": "",
          "type": "uint256"
        },
        {
          "internalType": "uint256",
          "name": "",
          "type": "uint256"
        }
      ],
      "stateMutability": "view",
      "type": "function"
    },
    {
      "inputs": [],
      "name": "getCurrentTokenId",
      "outputs": [
        {
          "internalType": "uint256",
          "name": "",
          "type": "uint256"
        }
      ],
      "stateMutability": "view",
      "type": "function"
    },
    {
      "inputs": [
        {
          "internalType": "uint256",
          "name": "tokenId",
          "type": "uint256"
        }
      ],
      "name": "getJob",
      "outputs": [
        {
          "internalType": "string",
          "name": "",
          "type": "string"
        }
      ],
      "stateMutability": "view",
      "type": "function"
    },
    {
      "inputs": [
        {
          "internalType": "uint256",
          "name": "tokenId",
          "type": "uint256"
        }
      ],
      "name": "getJobStatus",
      "outputs": [
        {
          "internalType": "address",
          "name": "",
          "type": "address"
        },
        {
          "internalType": "address",
          "name": "",
          "type": "address"
        },
        {
          "internalType": "address",
          "name": "",
          "type": "address"
        },
        {
          "internalType": "address",
          "name": "",
          "type": "address"
        }
      ],
      "stateMutability": "view",
      "type": "function"
    },
    {
      "inputs": [
        {
          "internalType": "address",
          "name": "",
          "type": "address"
        },
        {
          "internalType": "address",
          "name": "",
          "type": "address"
        }
      ],
      "name": "isApprovedForAll",
      "outputs": [
        {
          "internalType": "bool",
          "name": "",
          "type": "bool"
        }
      ],
      "stateMutability": "view",
      "type": "function"
    },
    {
      "inputs": [
        {
          "internalType": "string",
          "name": "_name",
          "type": "string"
        },
        {
          "internalType": "address",
          "name": "_creator",
          "type": "address"
        },
        {
          "internalType": "address",
          "name": "_recipient",
          "type": "address"
        },
        {
          "internalType": "string",
          "name": "_tokenURI",
          "type": "string"
        },
        {
          "internalType": "uint256",
          "name": "_executerFee",
          "type": "uint256"
        },
        {
          "internalType": "uint256",
          "name": "_recruiterFee",
          "type": "uint256"
        },
        {
          "internalType": "uint256",
          "name": "_creatorFee",
          "type": "uint256"
        },
        {
          "internalType": "uint256",
          "name": "_deadline",
          "type": "uint256"
        },
        {
          "internalType": "address[]",
          "name": "_allowList",
          "type": "address[]"
        }
      ],
      "name": "mintTo",
      "outputs": [
        {
          "internalType": "uint256",
          "name": "",
          "type": "uint256"
        }
      ],
      "stateMutability": "payable",
      "type": "function"
    },
    {
      "inputs": [],
      "name": "name",
      "outputs": [
        {
          "internalType": "string",
          "name": "",
          "type": "string"
        }
      ],
      "stateMutability": "view",
      "type": "function"
    },
    {
      "inputs": [],
      "name": "owner",
      "outputs": [
        {
          "internalType": "address",
          "name": "",
          "type": "address"
        }
      ],
      "stateMutability": "view",
      "type": "function"
    },
    {
      "inputs": [
        {
          "internalType": "uint256",
          "name": "id",
          "type": "uint256"
        }
      ],
      "name": "ownerOf",
      "outputs": [
        {
          "internalType": "address",
          "name": "owner",
          "type": "address"
        }
      ],
      "stateMutability": "view",
      "type": "function"
    },
    {
      "inputs": [],
      "name": "renounceOwnership",
      "outputs": [],
      "stateMutability": "nonpayable",
      "type": "function"
    },
    {
      "inputs": [
        {
          "internalType": "address",
          "name": "from",
          "type": "address"
        },
        {
          "internalType": "address",
          "name": "to",
          "type": "address"
        },
        {
          "internalType": "uint256",
          "name": "id",
          "type": "uint256"
        }
      ],
      "name": "safeTransferFrom",
      "outputs": [],
      "stateMutability": "nonpayable",
      "type": "function"
    },
    {
      "inputs": [
        {
          "internalType": "address",
          "name": "from",
          "type": "address"
        },
        {
          "internalType": "address",
          "name": "to",
          "type": "address"
        },
        {
          "internalType": "uint256",
          "name": "id",
          "type": "uint256"
        },
        {
          "internalType": "bytes",
          "name": "data",
          "type": "bytes"
        }
      ],
      "name": "safeTransferFrom",
      "outputs": [],
      "stateMutability": "nonpayable",
      "type": "function"
    },
    {
      "inputs": [
        {
          "internalType": "address",
          "name": "operator",
          "type": "address"
        },
        {
          "internalType": "bool",
          "name": "approved",
          "type": "bool"
        }
      ],
      "name": "setApprovalForAll",
      "outputs": [],
      "stateMutability": "nonpayable",
      "type": "function"
    },
    {
      "inputs": [
        {
          "internalType": "bytes4",
          "name": "interfaceId",
          "type": "bytes4"
        }
      ],
      "name": "supportsInterface",
      "outputs": [
        {
          "internalType": "bool",
          "name": "",
          "type": "bool"
        }
      ],
      "stateMutability": "view",
      "type": "function"
    },
    {
      "inputs": [],
      "name": "symbol",
      "outputs": [
        {
          "internalType": "string",
          "name": "",
          "type": "string"
        }
      ],
      "stateMutability": "view",
      "type": "function"
    },
    {
      "inputs": [
        {
          "internalType": "uint256",
          "name": "tokenId",
          "type": "uint256"
        }
      ],
      "name": "tokenURI",
      "outputs": [
        {
          "internalType": "string",
          "name": "",
          "type": "string"
        }
      ],
      "stateMutability": "view",
      "type": "function"
    },
    {
      "inputs": [
        {
          "internalType": "address",
          "name": "from",
          "type": "address"
        },
        {
          "internalType": "address",
          "name": "to",
          "type": "address"
        },
        {
          "internalType": "uint256",
          "name": "id",
          "type": "uint256"
        }
      ],
      "name": "transferFrom",
      "outputs": [],
      "stateMutability": "nonpayable",
      "type": "function"
    },
    {
      "inputs": [
        {
          "internalType": "address",
          "name": "newOwner",
          "type": "address"
        }
      ],
      "name": "transferOwnership",
      "outputs": [],
      "stateMutability": "nonpayable",
      "type": "function"
    },
    {
      "inputs": [
        {
          "internalType": "uint256",
          "name": "tokenId",
          "type": "uint256"
        }
      ],
      "name": "unClaimJob",
      "outputs": [
        {
          "internalType": "uint256",
          "name": "",
          "type": "uint256"
        }
      ],
      "stateMutability": "nonpayable",
      "type": "function"
    },
    {
      "inputs": [
        {
          "internalType": "address payable",
          "name": "payee",
          "type": "address"
        }
      ],
      "name": "withdrawPayments",
      "outputs": [],
      "stateMutability": "nonpayable",
      "type": "function"
    }
  ],
  "bytecode": {
    "object": "0x60806040523480156200001157600080fd5b506040516200275038038062002750833981016040819052620000349162000251565b8151829082906200004d906000906020850190620000de565b50805162000063906001906020840190620000de565b505050620000806200007a6200008860201b60201c565b6200008c565b5050620002f7565b3390565b600680546001600160a01b038381166001600160a01b0319831681179093556040519116919082907f8be0079c531659141344cd1fd0a4f28419497f9722a3daafe3b4186f6b6457e090600090a35050565b828054620000ec90620002bb565b90600052602060002090601f0160209004810192826200011057600085556200015b565b82601f106200012b57805160ff19168380011785556200015b565b828001600101855582156200015b579182015b828111156200015b5782518255916020019190600101906200013e565b50620001699291506200016d565b5090565b5b808211156200016957600081556001016200016e565b634e487b7160e01b600052604160045260246000fd5b600082601f830112620001ac57600080fd5b81516001600160401b0380821115620001c957620001c962000184565b604051601f8301601f19908116603f01168101908282118183101715620001f457620001f462000184565b816040528381526020925086838588010111156200021157600080fd5b600091505b8382101562000235578582018301518183018401529082019062000216565b83821115620002475760008385830101525b9695505050505050565b600080604083850312156200026557600080fd5b82516001600160401b03808211156200027d57600080fd5b6200028b868387016200019a565b93506020850151915080821115620002a257600080fd5b50620002b1858286016200019a565b9150509250929050565b600181811c90821680620002d057607f821691505b602082108103620002f157634e487b7160e01b600052602260045260246000fd5b50919050565b61244980620003076000396000f3fe6080604052600436106101b65760003560e01c8063894fe51c116100ec578063b1a9dcb21161008a578063c84aae1711610064578063c84aae1714610509578063c87b56dd1461056e578063e985e9c51461058e578063f2fde38b146105c957600080fd5b8063b1a9dcb2146104a9578063b88d4fde146104c9578063bf22c457146104e957600080fd5b80638e9be981116100c65780638e9be9811461040157806395d89b4114610421578063a22cb46514610436578063a6c58b631461045657600080fd5b8063894fe51c146103a35780638da5cb5b146103c35780638dd7d7ed146103e157600080fd5b80632dad7eb011610159578063561892361161013357806356189236146103395780636352211e1461034e57806370a082311461036e578063715018a61461038e57600080fd5b80632dad7eb0146102e657806331b3eb94146102f957806342842e0e1461031957600080fd5b8063081812fc11610195578063081812fc14610236578063095ea7b3146102845780631dffa3dc146102a657806323b872dd146102c657600080fd5b80629a9b7b146101bb57806301ffc9a7146101e457806306fdde0314610214575b600080fd5b3480156101c757600080fd5b506101d160075481565b6040519081526020015b60405180910390f35b3480156101f057600080fd5b506102046101ff366004611e01565b6105e9565b60405190151581526020016101db565b34801561022057600080fd5b5061022961063b565b6040516101db9190611e25565b34801561024257600080fd5b5061026c610251366004611e7a565b6004602052600090815260409020546001600160a01b031681565b6040516001600160a01b0390911681526020016101db565b34801561029057600080fd5b506102a461029f366004611eb3565b6106c9565b005b3480156102b257600080fd5b506101d16102c1366004611e7a565b6107b0565b3480156102d257600080fd5b506102a46102e1366004611edf565b61094f565b6101d16102f436600461200f565b610b16565b34801561030557600080fd5b506102a46103143660046120ea565b610d73565b34801561032557600080fd5b506102a4610334366004611edf565b610df4565b34801561034557600080fd5b506007546101d1565b34801561035a57600080fd5b5061026c610369366004611e7a565b610ec4565b34801561037a57600080fd5b506101d16103893660046120ea565b610f1b565b34801561039a57600080fd5b506102a4610f7e565b3480156103af57600080fd5b506101d16103be366004612107565b610f92565b3480156103cf57600080fd5b506006546001600160a01b031661026c565b3480156103ed57600080fd5b506102a46103fc366004611e7a565b61115c565b34801561040d57600080fd5b506101d161041c366004611e7a565b61127a565b34801561042d57600080fd5b5061022961139c565b34801561044257600080fd5b506102a4610451366004612149565b6113a9565b34801561046257600080fd5b50610476610471366004611e7a565b611415565b604080516001600160a01b03958616815293851660208501529184169183019190915290911660608201526080016101db565b3480156104b557600080fd5b506101d16104c4366004612187565b6114b8565b3480156104d557600080fd5b506102a46104e43660046121ac565b611757565b3480156104f557600080fd5b50610229610504366004611e7a565b61181c565b34801561051557600080fd5b506105536105243660046120ea565b6001600160a01b03166000908152600e6020908152604080832054600f83528184205460109093529220549192565b604080519384526020840192909252908201526060016101db565b34801561057a57600080fd5b50610229610589366004611e7a565b6118e4565b34801561059a57600080fd5b506102046105a936600461224b565b600560209081526000928352604080842090915290825290205460ff1681565b3480156105d557600080fd5b506102a46105e43660046120ea565b6119aa565b60006301ffc9a760e01b6001600160e01b03198316148061061a57506380ac58cd60e01b6001600160e01b03198316145b806106355750635b5e139f60e01b6001600160e01b03198316145b92915050565b6000805461064890612279565b80601f016020809104026020016040519081016040528092919081815260200182805461067490612279565b80156106c15780601f10610696576101008083540402835291602001916106c1565b820191906000526020600020905b8154815290600101906020018083116106a457829003601f168201915b505050505081565b6000818152600260205260409020546001600160a01b03163381148061071257506001600160a01b038116600090815260056020908152604080832033845290915290205460ff165b6107545760405162461bcd60e51b815260206004820152600e60248201526d1393d517d055551213d49256915160921b60448201526064015b60405180910390fd5b60008281526004602052604080822080546001600160a01b0319166001600160a01b0387811691821790925591518593918516917f8c5be1e5ebec7d5bd14f71427d1e84f3dd0314c0f7b2291e5b200ac8c7c3b92591a4505050565b600081815260096020908152604080832060029092528220546001600160a01b031633146108205760405162461bcd60e51b815260206004820152601860248201527f6e6f7420746865206f776e6572206f6620746865206a6f620000000000000000604482015260640161074b565b6000838152600a60205260409020546001600160a01b03161561087d5760405162461bcd60e51b81526020600482015260156024820152741a9bd88818dd5c9c995b9d1b1e4818db185a5b5959605a1b604482015260640161074b565b8060050154816003015461089191906122c9565b60028201546001600160a01b0316600090815260106020526040812080549091906108bd9084906122e1565b9091555050600381015460058201546108d691906122c9565b60028201546001600160a01b03166000908152600e6020526040812080549091906109029084906122c9565b90915550506000838152600a6020908152604080832080546001600160a01b0319908116909155600290940154600c90925290912080549092166001600160a01b03919091161790555090565b6000818152600260205260409020546001600160a01b038481169116146109a55760405162461bcd60e51b815260206004820152600a60248201526957524f4e475f46524f4d60b01b604482015260640161074b565b6001600160a01b0382166109ef5760405162461bcd60e51b81526020600482015260116024820152701253959053125117d49150d25412515395607a1b604482015260640161074b565b336001600160a01b0384161480610a2957506001600160a01b038316600090815260056020908152604080832033845290915290205460ff165b80610a4a57506000818152600460205260409020546001600160a01b031633145b610a875760405162461bcd60e51b815260206004820152600e60248201526d1393d517d055551213d49256915160921b604482015260640161074b565b6001600160a01b0380841660008181526003602090815260408083208054600019019055938616808352848320805460010190558583526002825284832080546001600160a01b03199081168317909155600490925284832080549092169091559251849392917fddf252ad1be2c89b69c2b068fc378daa952ba7f163c4a11628f55a4df523b3ef91a4505050565b60008085610b24888a6122c9565b610b2e91906122c9565b9050348114610b765760405162461bcd60e51b81526020600482015260146024820152731a5b98dbdc9c9958dd08199d5b991cc81cd95b9d60621b604482015260640161074b565b6000600760008154610b87906122f8565b91829055509050610b988b82611a23565b610ba2818b611af3565b6001600160a01b038c166000908152600e60205260409020879055610bc7888a6122c9565b6001600160a01b038c16600090815260106020908152604080832093909355838252600990529081208515610c70576001915060005b86811015610c6e5760018260090160008a8a85818110610c1f57610c1f612311565b9050602002016020810190610c3491906120ea565b6001600160a01b031681526020810191909152604001600020805460ff191691151591909117905580610c66816122f8565b915050610bfd565b505b8e816000019080519060200190610c88929190611d52565b508d8160010160006101000a8154816001600160a01b0302191690836001600160a01b031602179055508c8160020160006101000a8154816001600160a01b0302191690836001600160a01b031602179055508a81600301819055508881600401819055508981600501819055508781600601819055508b816007019080519060200190610d17929190611d52565b5060088101805461ffff19169055600a8101805460ff191683151517905560405183907f92447c6ecd808d390fb352da0dc90a05275b074c43bf302132a27fabafa6872b90600090a250909d9c50505050505050505050505050565b610d7b611b7e565b60405147906000906001600160a01b0384169083908381818185875af1925050503d8060008114610dc8576040519150601f19603f3d011682016040523d82523d6000602084013e610dcd565b606091505b5050905080610def5760405163d23a9e8960e01b815260040160405180910390fd5b505050565b610dff83838361094f565b6001600160a01b0382163b1580610ea85750604051630a85bd0160e11b8082523360048301526001600160a01b03858116602484015260448301849052608060648401526000608484015290919084169063150b7a029060a4016020604051808303816000875af1158015610e78573d6000803e3d6000fd5b505050506040513d601f19601f82011682018060405250810190610e9c9190612327565b6001600160e01b031916145b610def5760405162461bcd60e51b815260040161074b90612344565b6000818152600260205260409020546001600160a01b031680610f165760405162461bcd60e51b815260206004820152600a6024820152691393d517d3525395115160b21b604482015260640161074b565b919050565b60006001600160a01b038216610f625760405162461bcd60e51b815260206004820152600c60248201526b5a45524f5f4144445245535360a01b604482015260640161074b565b506001600160a01b031660009081526003602052604090205490565b610f86611b7e565b610f906000611bd8565b565b6000610f9d84611c2a565b506000848152600a60205260409020546001600160a01b031615610ffb5760405162461bcd60e51b81526020600482015260156024820152741d1bdad95b88185b1c9958591e4818db185a5b5959605a1b604482015260640161074b565b6000848152600960205260409020600a81015460ff161561106a5733600090815260098201602052604090205460ff1661106a5760405162461bcd60e51b815260206004820152601060248201526f139bdd081bdb88185b1b1bdddb1a5cdd60821b604482015260640161074b565b6000858152600b6020908152604080832080546001600160a01b03808a166001600160a01b031992831617909255600a909352908320805491871691909216179055600582015460038301546110c091906122c9565b60028301546001600160a01b03166000908152601060205260408120805492935083929091906110f19084906122e1565b909155505060028201546001600160a01b03166000908152600f6020526040812080548392906111229084906122c9565b909155505060405186907ff4164265b5dd1dd87aacef2e9cbb680610143d7b4f78b14568994b7debc32eba90600090a25093949350505050565b600081815260096020526040902060018101548291906001600160a01b031633146111c95760405162461bcd60e51b815260206004820152601960248201527f4f6e6c792063726561746f722063616e20646f20746869732100000000000000604482015260640161074b565b6000838152600960205260409020600881015460ff161561123a5760405162461bcd60e51b815260206004820152602560248201527f43726561746f7220616c726561647920636f6e6669726d656420636f6d706c6560448201526474696f6e2160d81b606482015260840161074b565b60088101805460ff1916600117905560405184907ffe4d8709ea4a605579b14ec174ea155ff24f470471e0a382dbe984fd2f4d044290600090a250505050565b6000818152600a60205260408120546001600160a01b031633146112ec5760405162461bcd60e51b815260206004820152602360248201527f796f7520617265206e6f742074686520636c61696d6572206f6e2074686973206044820152623537b160e91b606482015260840161074b565b60008281526009602052604081206005810154600382015491929161131191906122c9565b60028301546001600160a01b03166000908152600f60205260408120805492935083929091906113429084906122e1565b909155505060028201546001600160a01b0316600090815260106020526040812080548392906113739084906122c9565b9091555050506000838152600a6020526040902080546001600160a01b03191690555090919050565b6001805461064890612279565b3360008181526005602090815260408083206001600160a01b03871680855290835292819020805460ff191686151590811790915590519081529192917f17307eab39ab6107e8899845ad3d59bd9653f200f220920489ca2b5937696c31910160405180910390a35050565b60008060008061142485611c2a565b6114705760405162461bcd60e51b815260206004820152601b60248201527f717565727920666f72206e6f6e6578697374656e7420746f6b656e0000000000604482015260640161074b565b505050600091825250600a6020908152604080832054600c835281842054600b845282852054600d90945291909320546001600160a01b039384169491841693928316921690565b600082815260096020526040812060028101548491906001600160a01b031633146115255760405162461bcd60e51b815260206004820152601b60248201527f4f6e6c7920726563697069656e742063616e20646f2074686973210000000000604482015260640161074b565b61152e85611c2a565b506000858152600960209081526040808320600a909252909120546001600160a01b0316158061157757506000868152600a60205260409020546001600160a01b038681169116145b156116e15760008160050154826003015461159291906122c9565b6000888152600a60205260409020549091506001600160a01b038088169116036115fd5760028201546001600160a01b03166000908152600f6020526040812080548392906115e29084906122e1565b909155505060088201805461ff00191661010017905561162f565b60028201546001600160a01b0316600090815260106020526040812080548392906116299084906122e1565b90915550505b60058201546000888152600b60209081526040808320546001600160a01b03168352600e909152812080549091906116689084906122c9565b909155505060038201546001600160a01b0387166000908152600e60205260408120805490919061169a9084906122c9565b9091555050506000868152600a6020908152604080832080546001600160a01b0319908116909155600d90925290912080549091166001600160a01b038716179055611722565b60405162461bcd60e51b81526020600482015260166024820152753737ba1030b13632903a37903334b734b9b4103537b160511b604482015260640161074b565b60405186907f8f1310e982bd87a5289e7af5f41ea36ca58931c4adee6eac334292cee7a2812b90600090a25093949350505050565b61176285858561094f565b6001600160a01b0384163b15806117f95750604051630a85bd0160e11b808252906001600160a01b0386169063150b7a02906117aa9033908a9089908990899060040161236e565b6020604051808303816000875af11580156117c9573d6000803e3d6000fd5b505050506040513d601f19601f820116820180604052508101906117ed9190612327565b6001600160e01b031916145b6118155760405162461bcd60e51b815260040161074b90612344565b5050505050565b606061182782611c2a565b6118435760405162461bcd60e51b815260040161074b906123c2565b60008281526009602052604090208054819061185e90612279565b80601f016020809104026020016040519081016040528092919081815260200182805461188a90612279565b80156118d75780601f106118ac576101008083540402835291602001916118d7565b820191906000526020600020905b8154815290600101906020018083116118ba57829003601f168201915b5050505050915050919050565b60606118ef82611c2a565b61190b5760405162461bcd60e51b815260040161074b906123c2565b6000828152600860205260408120805461192490612279565b80601f016020809104026020016040519081016040528092919081815260200182805461195090612279565b801561199d5780601f106119725761010080835404028352916020019161199d565b820191906000526020600020905b81548152906001019060200180831161198057829003601f168201915b5093979650505050505050565b6119b2611b7e565b6001600160a01b038116611a175760405162461bcd60e51b815260206004820152602660248201527f4f776e61626c653a206e6577206f776e657220697320746865207a65726f206160448201526564647265737360d01b606482015260840161074b565b611a2081611bd8565b50565b611a2d8282611c47565b6001600160a01b0382163b1580611ad35750604051630a85bd0160e11b80825233600483015260006024830181905260448301849052608060648401526084830152906001600160a01b0384169063150b7a029060a4016020604051808303816000875af1158015611aa3573d6000803e3d6000fd5b505050506040513d601f19601f82011682018060405250810190611ac79190612327565b6001600160e01b031916145b611aef5760405162461bcd60e51b815260040161074b90612344565b5050565b611afc82611c2a565b611b5f5760405162461bcd60e51b815260206004820152602e60248201527f45524337323155524953746f726167653a2055524920736574206f66206e6f6e60448201526d32bc34b9ba32b73a103a37b5b2b760911b606482015260840161074b565b60008281526008602090815260409091208251610def92840190611d52565b6006546001600160a01b03163314610f905760405162461bcd60e51b815260206004820181905260248201527f4f776e61626c653a2063616c6c6572206973206e6f7420746865206f776e6572604482015260640161074b565b600680546001600160a01b038381166001600160a01b0319831681179093556040519116919082907f8be0079c531659141344cd1fd0a4f28419497f9722a3daafe3b4186f6b6457e090600090a35050565b6000908152600260205260409020546001600160a01b0316151590565b6001600160a01b038216611c915760405162461bcd60e51b81526020600482015260116024820152701253959053125117d49150d25412515395607a1b604482015260640161074b565b6000818152600260205260409020546001600160a01b031615611ce75760405162461bcd60e51b815260206004820152600e60248201526d1053149150511657d3525395115160921b604482015260640161074b565b6001600160a01b038216600081815260036020908152604080832080546001019055848352600290915280822080546001600160a01b0319168417905551839291907fddf252ad1be2c89b69c2b068fc378daa952ba7f163c4a11628f55a4df523b3ef908290a45050565b828054611d5e90612279565b90600052602060002090601f016020900481019282611d805760008555611dc6565b82601f10611d9957805160ff1916838001178555611dc6565b82800160010185558215611dc6579182015b82811115611dc6578251825591602001919060010190611dab565b50611dd2929150611dd6565b5090565b5b80821115611dd25760008155600101611dd7565b6001600160e01b031981168114611a2057600080fd5b600060208284031215611e1357600080fd5b8135611e1e81611deb565b9392505050565b600060208083528351808285015260005b81811015611e5257858101830151858201604001528201611e36565b81811115611e64576000604083870101525b50601f01601f1916929092016040019392505050565b600060208284031215611e8c57600080fd5b5035919050565b6001600160a01b0381168114611a2057600080fd5b8035610f1681611e93565b60008060408385031215611ec657600080fd5b8235611ed181611e93565b946020939093013593505050565b600080600060608486031215611ef457600080fd5b8335611eff81611e93565b92506020840135611f0f81611e93565b929592945050506040919091013590565b634e487b7160e01b600052604160045260246000fd5b600082601f830112611f4757600080fd5b813567ffffffffffffffff80821115611f6257611f62611f20565b604051601f8301601f19908116603f01168101908282118183101715611f8a57611f8a611f20565b81604052838152866020858801011115611fa357600080fd5b836020870160208301376000602085830101528094505050505092915050565b60008083601f840112611fd557600080fd5b50813567ffffffffffffffff811115611fed57600080fd5b6020830191508360208260051b850101111561200857600080fd5b9250929050565b6000806000806000806000806000806101208b8d03121561202f57600080fd5b8a3567ffffffffffffffff8082111561204757600080fd5b6120538e838f01611f36565b9b5061206160208e01611ea8565b9a5061206f60408e01611ea8565b995060608d013591508082111561208557600080fd5b6120918e838f01611f36565b985060808d0135975060a08d0135965060c08d0135955060e08d013594506101008d01359150808211156120c457600080fd5b506120d18d828e01611fc3565b915080935050809150509295989b9194979a5092959850565b6000602082840312156120fc57600080fd5b8135611e1e81611e93565b60008060006060848603121561211c57600080fd5b83359250602084013561212e81611e93565b9150604084013561213e81611e93565b809150509250925092565b6000806040838503121561215c57600080fd5b823561216781611e93565b91506020830135801515811461217c57600080fd5b809150509250929050565b6000806040838503121561219a57600080fd5b82359150602083013561217c81611e93565b6000806000806000608086880312156121c457600080fd5b85356121cf81611e93565b945060208601356121df81611e93565b935060408601359250606086013567ffffffffffffffff8082111561220357600080fd5b818801915088601f83011261221757600080fd5b81358181111561222657600080fd5b89602082850101111561223857600080fd5b9699959850939650602001949392505050565b6000806040838503121561225e57600080fd5b823561226981611e93565b9150602083013561217c81611e93565b600181811c9082168061228d57607f821691505b6020821081036122ad57634e487b7160e01b600052602260045260246000fd5b50919050565b634e487b7160e01b600052601160045260246000fd5b600082198211156122dc576122dc6122b3565b500190565b6000828210156122f3576122f36122b3565b500390565b60006001820161230a5761230a6122b3565b5060010190565b634e487b7160e01b600052603260045260246000fd5b60006020828403121561233957600080fd5b8151611e1e81611deb565b60208082526010908201526f155394d0519157d49150d2541251539560821b604082015260600190565b6001600160a01b038681168252851660208201526040810184905260806060820181905281018290526000828460a0840137600060a0848401015260a0601f19601f85011683010190509695505050505050565b60208082526031908201527f45524337323155524953746f726167653a2055524920717565727920666f72206040820152703737b732bc34b9ba32b73a103a37b5b2b760791b60608201526080019056fea26469706673582212201900d4aa5506e0c914cf349538150297505637fbd8b5fe7ca2abc31d35e1bab264736f6c634300080d0033",
    "linkReferences": {}
  },
  "methodIdentifiers": {
    "approve(address,uint256)": "095ea7b3",
    "balanceOf(address)": "70a08231",
    "cancelJob(uint256)": "1dffa3dc",
    "claimJob(uint256,address,address)": "894fe51c",
    "creatorConfirmJobCompletion(uint256)": "8dd7d7ed",
    "currentTokenId()": "009a9b7b",
    "finishJob(uint256,address)": "b1a9dcb2",
    "getApproved(uint256)": "081812fc",
    "getBalances(address)": "c84aae17",
    "getCurrentTokenId()": "56189236",
    "getJob(uint256)": "bf22c457",
    "getJobStatus(uint256)": "a6c58b63",
    "isApprovedForAll(address,address)": "e985e9c5",
    "mintTo(string,address,address,string,uint256,uint256,uint256,uint256,address[])": "2dad7eb0",
    "name()": "06fdde03",
    "owner()": "8da5cb5b",
    "ownerOf(uint256)": "6352211e",
    "renounceOwnership()": "715018a6",
    "safeTransferFrom(address,address,uint256)": "42842e0e",
    "safeTransferFrom(address,address,uint256,bytes)": "b88d4fde",
    "setApprovalForAll(address,bool)": "a22cb465",
    "supportsInterface(bytes4)": "01ffc9a7",
    "symbol()": "95d89b41",
    "tokenURI(uint256)": "c87b56dd",
    "transferFrom(address,address,uint256)": "23b872dd",
    "transferOwnership(address)": "f2fde38b",
    "unClaimJob(uint256)": "8e9be981",
    "withdrawPayments(address)": "31b3eb94"
  },
  "id": 5
}