{
  "abi": [
    {
      "inputs": [
        {
          "internalType": "string",
          "name": "_name",
          "type": "string"
        },
        {
          "internalType": "string",
          "name": "_symbol",
          "type": "string"
        }
      ],
      "stateMutability": "nonpayable",
      "type": "constructor"
    },
    {
      "inputs": [],
      "name": "WithdrawTransfer",
      "type": "error"
    },
    {
      "anonymous": false,
      "inputs": [
        {
          "indexed": true,
          "internalType": "address",
          "name": "owner",
          "type": "address"
        },
        {
          "indexed": true,
          "internalType": "address",
          "name": "spender",
          "type": "address"
        },
        {
          "indexed": true,
          "internalType": "uint256",
          "name": "id",
          "type": "uint256"
        }
      ],
      "name": "Approval",
      "type": "event"
    },
    {
      "anonymous": false,
      "inputs": [
        {
          "indexed": true,
          "internalType": "address",
          "name": "owner",
          "type": "address"
        },
        {
          "indexed": true,
          "internalType": "address",
          "name": "operator",
          "type": "address"
        },
        {
          "indexed": false,
          "internalType": "bool",
          "name": "approved",
          "type": "bool"
        }
      ],
      "name": "ApprovalForAll",
      "type": "event"
    },
    {
      "anonymous": false,
      "inputs": [
        {
          "indexed": true,
          "internalType": "uint256",
          "name": "tokenId",
          "type": "uint256"
        }
      ],
      "name": "JobClaimed",
      "type": "event"
    },
    {
      "anonymous": false,
      "inputs": [
        {
          "indexed": true,
          "internalType": "uint256",
          "name": "tokenId",
          "type": "uint256"
        }
      ],
      "name": "JobConfirmedComplete",
      "type": "event"
    },
    {
      "anonymous": false,
      "inputs": [
        {
          "indexed": true,
          "internalType": "uint256",
          "name": "tokenId",
          "type": "uint256"
        }
      ],
      "name": "JobCreated",
      "type": "event"
    },
    {
      "anonymous": false,
      "inputs": [
        {
          "indexed": true,
          "internalType": "uint256",
          "name": "tokenId",
          "type": "uint256"
        }
      ],
      "name": "JobFinished",
      "type": "event"
    },
    {
      "anonymous": false,
      "inputs": [
        {
          "indexed": true,
          "internalType": "address",
          "name": "previousOwner",
          "type": "address"
        },
        {
          "indexed": true,
          "internalType": "address",
          "name": "newOwner",
          "type": "address"
        }
      ],
      "name": "OwnershipTransferred",
      "type": "event"
    },
    {
      "anonymous": false,
      "inputs": [
        {
          "indexed": true,
          "internalType": "address",
          "name": "from",
          "type": "address"
        },
        {
          "indexed": true,
          "internalType": "address",
          "name": "to",
          "type": "address"
        },
        {
          "indexed": true,
          "internalType": "uint256",
          "name": "id",
          "type": "uint256"
        }
      ],
      "name": "Transfer",
      "type": "event"
    },
    {
      "inputs": [
        {
          "internalType": "address",
          "name": "spender",
          "type": "address"
        },
        {
          "internalType": "uint256",
          "name": "id",
          "type": "uint256"
        }
      ],
      "name": "approve",
      "outputs": [],
      "stateMutability": "nonpayable",
      "type": "function"
    },
    {
      "inputs": [
        {
          "internalType": "address",
          "name": "owner",
          "type": "address"
        }
      ],
      "name": "balanceOf",
      "outputs": [
        {
          "internalType": "uint256",
          "name": "",
          "type": "uint256"
        }
      ],
      "stateMutability": "view",
      "type": "function"
    },
    {
      "inputs": [
        {
          "internalType": "uint256",
          "name": "tokenId",
          "type": "uint256"
        }
      ],
      "name": "cancelJob",
      "outputs": [
        {
          "internalType": "uint256",
          "name": "",
          "type": "uint256"
        }
      ],
      "stateMutability": "nonpayable",
      "type": "function"
    },
    {
      "inputs": [
        {
          "internalType": "uint256",
          "name": "tokenId",
          "type": "uint256"
        },
        {
          "internalType": "address",
          "name": "recruiter",
          "type": "address"
        },
        {
          "internalType": "address",
          "name": "executer",
          "type": "address"
        }
      ],
      "name": "claimJob",
      "outputs": [
        {
          "internalType": "uint256",
          "name": "",
          "type": "uint256"
        }
      ],
      "stateMutability": "nonpayable",
      "type": "function"
    },
    {
      "inputs": [
        {
          "internalType": "uint256",
          "name": "_tokenId",
          "type": "uint256"
        }
      ],
      "name": "creatorConfirmJobCompletion",
      "outputs": [],
      "stateMutability": "nonpayable",
      "type": "function"
    },
    {
      "inputs": [],
      "name": "currentTokenId",
      "outputs": [
        {
          "internalType": "uint256",
          "name": "",
          "type": "uint256"
        }
      ],
      "stateMutability": "view",
      "type": "function"
    },
    {
      "inputs": [
        {
          "internalType": "uint256",
          "name": "tokenId",
          "type": "uint256"
        },
        {
          "internalType": "address",
          "name": "executer",
          "type": "address"
        }
      ],
      "name": "finishJob",
      "outputs": [
        {
          "internalType": "uint256",
          "name": "",
          "type": "uint256"
        }
      ],
      "stateMutability": "nonpayable",
      "type": "function"
    },
    {
      "inputs": [
        {
          "internalType": "uint256",
          "name": "",
          "type": "uint256"
        }
      ],
      "name": "getApproved",
      "outputs": [
        {
          "internalType": "address",
          "name": "",
          "type": "address"
        }
      ],
      "stateMutability": "view",
      "type": "function"
    },
    {
      "inputs": [
        {
          "internalType": "address",
          "name": "payee",
          "type": "address"
        }
      ],
      "name": "getBalances",
      "outputs": [
        {
          "internalType": "uint256",
          "name": "",
          "type": "uint256"
        },
        {
          "internalType": "uint256",
          "name": "",
          "type": "uint256"
        },
        {
          "internalType": "uint256",
          "name": "",
          "type": "uint256"
        }
      ],
      "stateMutability": "view",
      "type": "function"
    },
    {
      "inputs": [],
      "name": "getCurrentTokenId",
      "outputs": [
        {
          "internalType": "uint256",
          "name": "",
          "type": "uint256"
        }
      ],
      "stateMutability": "view",
      "type": "function"
    },
    {
      "inputs": [
        {
          "internalType": "uint256",
          "name": "tokenId",
          "type": "uint256"
        }
      ],
      "name": "getJob",
      "outputs": [
        {
          "components": [
            {
              "internalType": "address",
              "name": "creator",
              "type": "address"
            },
            {
              "internalType": "address",
              "name": "recipient",
              "type": "address"
            },
            {
              "internalType": "uint256",
              "name": "executerFee",
              "type": "uint256"
            },
            {
              "internalType": "uint256",
              "name": "creatorFee",
              "type": "uint256"
            },
            {
              "internalType": "uint256",
              "name": "recruiterFee",
              "type": "uint256"
            },
            {
              "internalType": "uint256",
              "name": "deadline",
              "type": "uint256"
            },
            {
              "internalType": "string",
              "name": "tokenURI",
              "type": "string"
            },
            {
              "internalType": "bool",
              "name": "creatorConfirmsCompletion",
              "type": "bool"
            },
            {
              "internalType": "bool",
              "name": "recipientConfirmsCompletion",
              "type": "bool"
            }
          ],
          "internalType": "struct AuroraFloo.Job",
          "name": "",
          "type": "tuple"
        }
      ],
      "stateMutability": "view",
      "type": "function"
    },
    {
      "inputs": [
        {
          "internalType": "uint256",
          "name": "tokenId",
          "type": "uint256"
        }
      ],
      "name": "getJobStatus",
      "outputs": [
        {
          "internalType": "address",
          "name": "",
          "type": "address"
        },
        {
          "internalType": "address",
          "name": "",
          "type": "address"
        },
        {
          "internalType": "address",
          "name": "",
          "type": "address"
        },
        {
          "internalType": "address",
          "name": "",
          "type": "address"
        }
      ],
      "stateMutability": "view",
      "type": "function"
    },
    {
      "inputs": [
        {
          "internalType": "address",
          "name": "",
          "type": "address"
        },
        {
          "internalType": "address",
          "name": "",
          "type": "address"
        }
      ],
      "name": "isApprovedForAll",
      "outputs": [
        {
          "internalType": "bool",
          "name": "",
          "type": "bool"
        }
      ],
      "stateMutability": "view",
      "type": "function"
    },
    {
      "inputs": [
        {
          "internalType": "address",
          "name": "_creator",
          "type": "address"
        },
        {
          "internalType": "address",
          "name": "_recipient",
          "type": "address"
        },
        {
          "internalType": "string",
          "name": "_tokenURI",
          "type": "string"
        },
        {
          "internalType": "uint256",
          "name": "_executerFee",
          "type": "uint256"
        },
        {
          "internalType": "uint256",
          "name": "_recruiterFee",
          "type": "uint256"
        },
        {
          "internalType": "uint256",
          "name": "_creatorFee",
          "type": "uint256"
        },
        {
          "internalType": "uint256",
          "name": "_deadline",
          "type": "uint256"
        }
      ],
      "name": "mintTo",
      "outputs": [
        {
          "internalType": "uint256",
          "name": "",
          "type": "uint256"
        }
      ],
      "stateMutability": "payable",
      "type": "function"
    },
    {
      "inputs": [],
      "name": "name",
      "outputs": [
        {
          "internalType": "string",
          "name": "",
          "type": "string"
        }
      ],
      "stateMutability": "view",
      "type": "function"
    },
    {
      "inputs": [],
      "name": "owner",
      "outputs": [
        {
          "internalType": "address",
          "name": "",
          "type": "address"
        }
      ],
      "stateMutability": "view",
      "type": "function"
    },
    {
      "inputs": [
        {
          "internalType": "uint256",
          "name": "id",
          "type": "uint256"
        }
      ],
      "name": "ownerOf",
      "outputs": [
        {
          "internalType": "address",
          "name": "owner",
          "type": "address"
        }
      ],
      "stateMutability": "view",
      "type": "function"
    },
    {
      "inputs": [],
      "name": "renounceOwnership",
      "outputs": [],
      "stateMutability": "nonpayable",
      "type": "function"
    },
    {
      "inputs": [
        {
          "internalType": "address",
          "name": "from",
          "type": "address"
        },
        {
          "internalType": "address",
          "name": "to",
          "type": "address"
        },
        {
          "internalType": "uint256",
          "name": "id",
          "type": "uint256"
        }
      ],
      "name": "safeTransferFrom",
      "outputs": [],
      "stateMutability": "nonpayable",
      "type": "function"
    },
    {
      "inputs": [
        {
          "internalType": "address",
          "name": "from",
          "type": "address"
        },
        {
          "internalType": "address",
          "name": "to",
          "type": "address"
        },
        {
          "internalType": "uint256",
          "name": "id",
          "type": "uint256"
        },
        {
          "internalType": "bytes",
          "name": "data",
          "type": "bytes"
        }
      ],
      "name": "safeTransferFrom",
      "outputs": [],
      "stateMutability": "nonpayable",
      "type": "function"
    },
    {
      "inputs": [
        {
          "internalType": "address",
          "name": "operator",
          "type": "address"
        },
        {
          "internalType": "bool",
          "name": "approved",
          "type": "bool"
        }
      ],
      "name": "setApprovalForAll",
      "outputs": [],
      "stateMutability": "nonpayable",
      "type": "function"
    },
    {
      "inputs": [
        {
          "internalType": "bytes4",
          "name": "interfaceId",
          "type": "bytes4"
        }
      ],
      "name": "supportsInterface",
      "outputs": [
        {
          "internalType": "bool",
          "name": "",
          "type": "bool"
        }
      ],
      "stateMutability": "view",
      "type": "function"
    },
    {
      "inputs": [],
      "name": "symbol",
      "outputs": [
        {
          "internalType": "string",
          "name": "",
          "type": "string"
        }
      ],
      "stateMutability": "view",
      "type": "function"
    },
    {
      "inputs": [
        {
          "internalType": "uint256",
          "name": "tokenId",
          "type": "uint256"
        }
      ],
      "name": "tokenURI",
      "outputs": [
        {
          "internalType": "string",
          "name": "",
          "type": "string"
        }
      ],
      "stateMutability": "view",
      "type": "function"
    },
    {
      "inputs": [
        {
          "internalType": "address",
          "name": "from",
          "type": "address"
        },
        {
          "internalType": "address",
          "name": "to",
          "type": "address"
        },
        {
          "internalType": "uint256",
          "name": "id",
          "type": "uint256"
        }
      ],
      "name": "transferFrom",
      "outputs": [],
      "stateMutability": "nonpayable",
      "type": "function"
    },
    {
      "inputs": [
        {
          "internalType": "address",
          "name": "newOwner",
          "type": "address"
        }
      ],
      "name": "transferOwnership",
      "outputs": [],
      "stateMutability": "nonpayable",
      "type": "function"
    },
    {
      "inputs": [
        {
          "internalType": "uint256",
          "name": "tokenId",
          "type": "uint256"
        }
      ],
      "name": "unClaimJob",
      "outputs": [
        {
          "internalType": "uint256",
          "name": "",
          "type": "uint256"
        }
      ],
      "stateMutability": "nonpayable",
      "type": "function"
    },
    {
      "inputs": [
        {
          "internalType": "address payable",
          "name": "payee",
          "type": "address"
        }
      ],
      "name": "withdrawPayments",
      "outputs": [],
      "stateMutability": "nonpayable",
      "type": "function"
    }
  ],
  "bytecode": {
    "object": "0x60806040523480156200001157600080fd5b5060405162002df438038062002df4833981016040819052620000349162000251565b8151829082906200004d906000906020850190620000de565b50805162000063906001906020840190620000de565b505050620000806200007a6200008860201b60201c565b6200008c565b5050620002f7565b3390565b600680546001600160a01b038381166001600160a01b0319831681179093556040519116919082907f8be0079c531659141344cd1fd0a4f28419497f9722a3daafe3b4186f6b6457e090600090a35050565b828054620000ec90620002bb565b90600052602060002090601f0160209004810192826200011057600085556200015b565b82601f106200012b57805160ff19168380011785556200015b565b828001600101855582156200015b579182015b828111156200015b5782518255916020019190600101906200013e565b50620001699291506200016d565b5090565b5b808211156200016957600081556001016200016e565b634e487b7160e01b600052604160045260246000fd5b600082601f830112620001ac57600080fd5b81516001600160401b0380821115620001c957620001c962000184565b604051601f8301601f19908116603f01168101908282118183101715620001f457620001f462000184565b816040528381526020925086838588010111156200021157600080fd5b600091505b8382101562000235578582018301518183018401529082019062000216565b83821115620002475760008385830101525b9695505050505050565b600080604083850312156200026557600080fd5b82516001600160401b03808211156200027d57600080fd5b6200028b868387016200019a565b93506020850151915080821115620002a257600080fd5b50620002b1858286016200019a565b9150509250929050565b600181811c90821680620002d057607f821691505b602082108103620002f157634e487b7160e01b600052602260045260246000fd5b50919050565b612aed80620003076000396000f3fe6080604052600436106101b65760003560e01c8063894fe51c116100ec578063b1a9dcb21161008a578063c84aae1711610064578063c84aae1714610516578063c87b56dd1461057b578063e985e9c51461059b578063f2fde38b146105d657600080fd5b8063b1a9dcb2146104a9578063b88d4fde146104c9578063bf22c457146104e957600080fd5b80638e9be981116100c65780638e9be9811461040157806395d89b4114610421578063a22cb46514610436578063a6c58b631461045657600080fd5b8063894fe51c146103a35780638da5cb5b146103c35780638dd7d7ed146103e157600080fd5b806331b3eb9411610159578063561892361161013357806356189236146103395780636352211e1461034e57806370a082311461036e578063715018a61461038e57600080fd5b806331b3eb94146102e657806342842e0e14610306578063488ddf221461032657600080fd5b8063081812fc11610195578063081812fc14610236578063095ea7b3146102845780631dffa3dc146102a657806323b872dd146102c657600080fd5b80629a9b7b146101bb57806301ffc9a7146101e457806306fdde0314610214575b600080fd5b3480156101c757600080fd5b506101d160075481565b6040519081526020015b60405180910390f35b3480156101f057600080fd5b506102046101ff3660046124d0565b6105f6565b60405190151581526020016101db565b34801561022057600080fd5b50610229610648565b6040516101db9190612541565b34801561024257600080fd5b5061026c610251366004612554565b6004602052600090815260409020546001600160a01b031681565b6040516001600160a01b0390911681526020016101db565b34801561029057600080fd5b506102a461029f366004612582565b6106d6565b005b3480156102b257600080fd5b506101d16102c1366004612554565b6107bd565b3480156102d257600080fd5b506102a46102e13660046125ae565b610a70565b3480156102f257600080fd5b506102a46103013660046125ef565b610c37565b34801561031257600080fd5b506102a46103213660046125ae565b610cb8565b6101d1610334366004612622565b610d88565b34801561034557600080fd5b506007546101d1565b34801561035a57600080fd5b5061026c610369366004612554565b610fd4565b34801561037a57600080fd5b506101d16103893660046125ef565b61102b565b34801561039a57600080fd5b506102a461108e565b3480156103af57600080fd5b506101d16103be36600461271d565b6110a2565b3480156103cf57600080fd5b506006546001600160a01b031661026c565b3480156103ed57600080fd5b506102a46103fc366004612554565b611323565b34801561040d57600080fd5b506101d161041c366004612554565b61154c565b34801561042d57600080fd5b50610229611785565b34801561044257600080fd5b506102a461045136600461275f565b611792565b34801561046257600080fd5b50610476610471366004612554565b6117fe565b604080516001600160a01b03958616815293851660208501529184169183019190915290911660608201526080016101db565b3480156104b557600080fd5b506101d16104c436600461279d565b6118a1565b3480156104d557600080fd5b506102a46104e43660046127c2565b611d62565b3480156104f557600080fd5b50610509610504366004612554565b611e27565b6040516101db9190612861565b34801561052257600080fd5b506105606105313660046125ef565b6001600160a01b03166000908152600e6020908152604080832054600f83528184205460109093529220549192565b604080519384526020840192909252908201526060016101db565b34801561058757600080fd5b50610229610596366004612554565b611fb3565b3480156105a757600080fd5b506102046105b6366004612905565b600560209081526000928352604080842090915290825290205460ff1681565b3480156105e257600080fd5b506102a46105f13660046125ef565b612079565b60006301ffc9a760e01b6001600160e01b03198316148061062757506380ac58cd60e01b6001600160e01b03198316145b806106425750635b5e139f60e01b6001600160e01b03198316145b92915050565b6000805461065590612933565b80601f016020809104026020016040519081016040528092919081815260200182805461068190612933565b80156106ce5780601f106106a3576101008083540402835291602001916106ce565b820191906000526020600020905b8154815290600101906020018083116106b157829003601f168201915b505050505081565b6000818152600260205260409020546001600160a01b03163381148061071f57506001600160a01b038116600090815260056020908152604080832033845290915290205460ff165b6107615760405162461bcd60e51b815260206004820152600e60248201526d1393d517d055551213d49256915160921b60448201526064015b60405180910390fd5b60008281526004602052604080822080546001600160a01b0319166001600160a01b0387811691821790925591518593918516917f8c5be1e5ebec7d5bd14f71427d1e84f3dd0314c0f7b2291e5b200ac8c7c3b92591a4505050565b600081815260096020908152604080832081516101208101835281546001600160a01b039081168252600183015416938101939093526002810154918301919091526003810154606083015260048101546080830152600581015460a08301526006810180548493929160c084019161083590612933565b80601f016020809104026020016040519081016040528092919081815260200182805461086190612933565b80156108ae5780601f10610883576101008083540402835291602001916108ae565b820191906000526020600020905b81548152906001019060200180831161089157829003601f168201915b50505091835250506007919091015460ff80821615156020808501919091526101009092041615156040928301526000868152600290915220549091506001600160a01b031633146109425760405162461bcd60e51b815260206004820152601860248201527f6e6f7420746865206f776e6572206f6620746865206a6f6200000000000000006044820152606401610758565b6000838152600a60205260409020546001600160a01b03161561099f5760405162461bcd60e51b81526020600482015260156024820152741a9bd88818dd5c9c995b9d1b1e4818db185a5b5959605a1b6044820152606401610758565b806080015181604001516109b39190612983565b6020808301516001600160a01b0316600090815260109091526040812080549091906109e090849061299b565b9091555050604081015160808201516109f99190612983565b6020808301516001600160a01b03166000908152600e909152604081208054909190610a26908490612983565b90915550506000838152600a6020908152604080832080546001600160a01b031990811690915593820151600c90925290912080549092166001600160a01b039091161790555090565b6000818152600260205260409020546001600160a01b03848116911614610ac65760405162461bcd60e51b815260206004820152600a60248201526957524f4e475f46524f4d60b01b6044820152606401610758565b6001600160a01b038216610b105760405162461bcd60e51b81526020600482015260116024820152701253959053125117d49150d25412515395607a1b6044820152606401610758565b336001600160a01b0384161480610b4a57506001600160a01b038316600090815260056020908152604080832033845290915290205460ff165b80610b6b57506000818152600460205260409020546001600160a01b031633145b610ba85760405162461bcd60e51b815260206004820152600e60248201526d1393d517d055551213d49256915160921b6044820152606401610758565b6001600160a01b0380841660008181526003602090815260408083208054600019019055938616808352848320805460010190558583526002825284832080546001600160a01b03199081168317909155600490925284832080549092169091559251849392917fddf252ad1be2c89b69c2b068fc378daa952ba7f163c4a11628f55a4df523b3ef91a4505050565b610c3f6120f2565b60405147906000906001600160a01b0384169083908381818185875af1925050503d8060008114610c8c576040519150601f19603f3d011682016040523d82523d6000602084013e610c91565b606091505b5050905080610cb35760405163d23a9e8960e01b815260040160405180910390fd5b505050565b610cc3838383610a70565b6001600160a01b0382163b1580610d6c5750604051630a85bd0160e11b8082523360048301526001600160a01b03858116602484015260448301849052608060648401526000608484015290919084169063150b7a029060a4016020604051808303816000875af1158015610d3c573d6000803e3d6000fd5b505050506040513d601f19601f82011682018060405250810190610d6091906129b2565b6001600160e01b031916145b610cb35760405162461bcd60e51b8152600401610758906129cf565b60008083610d968688612983565b610da09190612983565b9050348114610de85760405162461bcd60e51b81526020600482015260146024820152731a5b98dbdc9c9958dd08199d5b991cc81cd95b9d60621b6044820152606401610758565b6000600760008154610df9906129f9565b91829055509050610e0a898261214c565b610e14818961221c565b6001600160a01b038a166000908152600e60205260409020859055610e398688612983565b601060008b6001600160a01b03166001600160a01b03168152602001908152602001600020819055506040518061012001604052808b6001600160a01b031681526020018a6001600160a01b03168152602001888152602001868152602001878152602001858152602001898152602001600015158152602001600015158152506009600083815260200190815260200160002060008201518160000160006101000a8154816001600160a01b0302191690836001600160a01b0316021790555060208201518160010160006101000a8154816001600160a01b0302191690836001600160a01b0316021790555060408201518160020155606082015181600301556080820151816004015560a0820151816005015560c0820151816006019080519060200190610f6b929190612421565b5060e082015160079190910180546101009384015161ffff1990911692151561ff0019169290921791151590920217905560405181907f92447c6ecd808d390fb352da0dc90a05275b074c43bf302132a27fabafa6872b90600090a29998505050505050505050565b6000818152600260205260409020546001600160a01b0316806110265760405162461bcd60e51b815260206004820152600a6024820152691393d517d3525395115160b21b6044820152606401610758565b919050565b60006001600160a01b0382166110725760405162461bcd60e51b815260206004820152600c60248201526b5a45524f5f4144445245535360a01b6044820152606401610758565b506001600160a01b031660009081526003602052604090205490565b6110966120f2565b6110a060006122a7565b565b60006110ad846122f9565b506000848152600a60205260409020546001600160a01b03161561110b5760405162461bcd60e51b81526020600482015260156024820152741d1bdad95b88185b1c9958591e4818db185a5b5959605a1b6044820152606401610758565b600084815260096020908152604080832081516101208101835281546001600160a01b039081168252600183015416938101939093526002810154918301919091526003810154606083015260048101546080830152600581015460a083015260068101805460c08401919061118090612933565b80601f01602080910402602001604051908101604052809291908181526020018280546111ac90612933565b80156111f95780601f106111ce576101008083540402835291602001916111f9565b820191906000526020600020905b8154815290600101906020018083116111dc57829003601f168201915b50505091835250506007919091015460ff80821615156020808501919091526101009092041615156040928301526000888152600b825282812080546001600160a01b03808b166001600160a01b031992831617909255600a909352838220805491891691909316179091556080830151918301519293509161127c9190612983565b9050806010600084602001516001600160a01b03166001600160a01b0316815260200190815260200160002060008282546112b7919061299b565b90915550506020808301516001600160a01b03166000908152600f9091526040812080548392906112e9908490612983565b909155505060405186907ff4164265b5dd1dd87aacef2e9cbb680610143d7b4f78b14568994b7debc32eba90600090a25093949350505050565b600081815260096020908152604080832081516101208101835281546001600160a01b039081168252600183015416938101939093526002810154918301919091526003810154606083015260048101546080830152600581015460a0830152600681018054859493929160c084019161139c90612933565b80601f01602080910402602001604051908101604052809291908181526020018280546113c890612933565b80156114155780601f106113ea57610100808354040283529160200191611415565b820191906000526020600020905b8154815290600101906020018083116113f857829003601f168201915b50505091835250506007919091015460ff8082161515602084015261010090910416151560409091015280519091506001600160a01b0316331461149b5760405162461bcd60e51b815260206004820152601960248201527f4f6e6c792063726561746f722063616e20646f207468697321000000000000006044820152606401610758565b6000838152600960205260409020600781015460ff161561150c5760405162461bcd60e51b815260206004820152602560248201527f43726561746f7220616c726561647920636f6e6669726d656420636f6d706c6560448201526474696f6e2160d81b6064820152608401610758565b60078101805460ff1916600117905560405184907ffe4d8709ea4a605579b14ec174ea155ff24f470471e0a382dbe984fd2f4d044290600090a250505050565b6000818152600a60205260408120546001600160a01b031633146115be5760405162461bcd60e51b815260206004820152602360248201527f796f7520617265206e6f742074686520636c61696d6572206f6e2074686973206044820152623537b160e91b6064820152608401610758565b600082815260096020908152604080832081516101208101835281546001600160a01b039081168252600183015416938101939093526002810154918301919091526003810154606083015260048101546080830152600581015460a083015260068101805460c08401919061163390612933565b80601f016020809104026020016040519081016040528092919081815260200182805461165f90612933565b80156116ac5780601f10611681576101008083540402835291602001916116ac565b820191906000526020600020905b81548152906001019060200180831161168f57829003601f168201915b50505091835250506007919091015460ff808216151560208401526101009091041615156040918201526080820151908201519192506000916116ef9190612983565b905080600f600084602001516001600160a01b03166001600160a01b03168152602001908152602001600020600082825461172a919061299b565b90915550506020808301516001600160a01b03166000908152601090915260408120805483929061175c908490612983565b9091555050506000838152600a6020526040902080546001600160a01b03191690555090919050565b6001805461065590612933565b3360008181526005602090815260408083206001600160a01b03871680855290835292819020805460ff191686151590811790915590519081529192917f17307eab39ab6107e8899845ad3d59bd9653f200f220920489ca2b5937696c31910160405180910390a35050565b60008060008061180d856122f9565b6118595760405162461bcd60e51b815260206004820152601b60248201527f717565727920666f72206e6f6e6578697374656e7420746f6b656e00000000006044820152606401610758565b505050600091825250600a6020908152604080832054600c835281842054600b845282852054600d90945291909320546001600160a01b039384169491841693928316921690565b600082815260096020908152604080832081516101208101835281546001600160a01b039081168252600183015416938101939093526002810154918301919091526003810154606083015260048101546080830152600581015460a0830152600681018054869385939092909160c08401919061191e90612933565b80601f016020809104026020016040519081016040528092919081815260200182805461194a90612933565b80156119975780601f1061196c57610100808354040283529160200191611997565b820191906000526020600020905b81548152906001019060200180831161197a57829003601f168201915b50505091835250506007919091015460ff80821615156020808501919091526101009092041615156040909201919091528101519091506001600160a01b03163314611a255760405162461bcd60e51b815260206004820152601b60248201527f4f6e6c7920726563697069656e742063616e20646f20746869732100000000006044820152606401610758565b611a2e856122f9565b50600085815260096020908152604080832081516101208101835281546001600160a01b039081168252600183015416938101939093526002810154918301919091526003810154606083015260048101546080830152600581015460a083015260068101805460c084019190611aa490612933565b80601f0160208091040260200160405190810160405280929190818152602001828054611ad090612933565b8015611b1d5780601f10611af257610100808354040283529160200191611b1d565b820191906000526020600020905b815481529060010190602001808311611b0057829003601f168201915b50505091835250506007919091015460ff80821615156020808501919091526101009092041615156040928301526000898152600a90915220549091506001600160a01b03161580611b8857506000868152600a60205260409020546001600160a01b038681169116145b15611cec57600081608001518260400151611ba39190612983565b6000888152600a60205260409020549091506001600160a01b03808816911603611c06576020808301516001600160a01b03166000908152600f909152604081208054839290611bf490849061299b565b90915550506001610100830152611c39565b6020808301516001600160a01b031660009081526010909152604081208054839290611c3390849061299b565b90915550505b60808201516000888152600b60209081526040808320546001600160a01b03168352600e90915281208054909190611c72908490612983565b90915550506040808301516001600160a01b0388166000908152600e602052918220805491929091611ca5908490612983565b9091555050506000868152600a6020908152604080832080546001600160a01b0319908116909155600d90925290912080549091166001600160a01b038716179055611d2d565b60405162461bcd60e51b81526020600482015260166024820152753737ba1030b13632903a37903334b734b9b4103537b160511b6044820152606401610758565b60405186907f8f1310e982bd87a5289e7af5f41ea36ca58931c4adee6eac334292cee7a2812b90600090a25093949350505050565b611d6d858585610a70565b6001600160a01b0384163b1580611e045750604051630a85bd0160e11b808252906001600160a01b0386169063150b7a0290611db59033908a90899089908990600401612a12565b6020604051808303816000875af1158015611dd4573d6000803e3d6000fd5b505050506040513d601f19601f82011682018060405250810190611df891906129b2565b6001600160e01b031916145b611e205760405162461bcd60e51b8152600401610758906129cf565b5050505050565b604080516101208101825260008082526020820181905291810182905260608082018390526080820183905260a0820183905260c082015260e08101829052610100810191909152611e78826122f9565b611e945760405162461bcd60e51b815260040161075890612a66565b600082815260096020908152604080832081516101208101835281546001600160a01b039081168252600183015416938101939093526002810154918301919091526003810154606083015260048101546080830152600581015460a083015260068101805460c084019190611f0990612933565b80601f0160208091040260200160405190810160405280929190818152602001828054611f3590612933565b8015611f825780601f10611f5757610100808354040283529160200191611f82565b820191906000526020600020905b815481529060010190602001808311611f6557829003601f168201915b50505091835250506007919091015460ff808216151560208401526101009091041615156040909101529392505050565b6060611fbe826122f9565b611fda5760405162461bcd60e51b815260040161075890612a66565b60008281526008602052604081208054611ff390612933565b80601f016020809104026020016040519081016040528092919081815260200182805461201f90612933565b801561206c5780601f106120415761010080835404028352916020019161206c565b820191906000526020600020905b81548152906001019060200180831161204f57829003601f168201915b5093979650505050505050565b6120816120f2565b6001600160a01b0381166120e65760405162461bcd60e51b815260206004820152602660248201527f4f776e61626c653a206e6577206f776e657220697320746865207a65726f206160448201526564647265737360d01b6064820152608401610758565b6120ef816122a7565b50565b6006546001600160a01b031633146110a05760405162461bcd60e51b815260206004820181905260248201527f4f776e61626c653a2063616c6c6572206973206e6f7420746865206f776e65726044820152606401610758565b6121568282612316565b6001600160a01b0382163b15806121fc5750604051630a85bd0160e11b80825233600483015260006024830181905260448301849052608060648401526084830152906001600160a01b0384169063150b7a029060a4016020604051808303816000875af11580156121cc573d6000803e3d6000fd5b505050506040513d601f19601f820116820180604052508101906121f091906129b2565b6001600160e01b031916145b6122185760405162461bcd60e51b8152600401610758906129cf565b5050565b612225826122f9565b6122885760405162461bcd60e51b815260206004820152602e60248201527f45524337323155524953746f726167653a2055524920736574206f66206e6f6e60448201526d32bc34b9ba32b73a103a37b5b2b760911b6064820152608401610758565b60008281526008602090815260409091208251610cb392840190612421565b600680546001600160a01b038381166001600160a01b0319831681179093556040519116919082907f8be0079c531659141344cd1fd0a4f28419497f9722a3daafe3b4186f6b6457e090600090a35050565b6000908152600260205260409020546001600160a01b0316151590565b6001600160a01b0382166123605760405162461bcd60e51b81526020600482015260116024820152701253959053125117d49150d25412515395607a1b6044820152606401610758565b6000818152600260205260409020546001600160a01b0316156123b65760405162461bcd60e51b815260206004820152600e60248201526d1053149150511657d3525395115160921b6044820152606401610758565b6001600160a01b038216600081815260036020908152604080832080546001019055848352600290915280822080546001600160a01b0319168417905551839291907fddf252ad1be2c89b69c2b068fc378daa952ba7f163c4a11628f55a4df523b3ef908290a45050565b82805461242d90612933565b90600052602060002090601f01602090048101928261244f5760008555612495565b82601f1061246857805160ff1916838001178555612495565b82800160010185558215612495579182015b8281111561249557825182559160200191906001019061247a565b506124a19291506124a5565b5090565b5b808211156124a157600081556001016124a6565b6001600160e01b0319811681146120ef57600080fd5b6000602082840312156124e257600080fd5b81356124ed816124ba565b9392505050565b6000815180845260005b8181101561251a576020818501810151868301820152016124fe565b8181111561252c576000602083870101525b50601f01601f19169290920160200192915050565b6020815260006124ed60208301846124f4565b60006020828403121561256657600080fd5b5035919050565b6001600160a01b03811681146120ef57600080fd5b6000806040838503121561259557600080fd5b82356125a08161256d565b946020939093013593505050565b6000806000606084860312156125c357600080fd5b83356125ce8161256d565b925060208401356125de8161256d565b929592945050506040919091013590565b60006020828403121561260157600080fd5b81356124ed8161256d565b634e487b7160e01b600052604160045260246000fd5b600080600080600080600060e0888a03121561263d57600080fd5b87356126488161256d565b965060208801356126588161256d565b9550604088013567ffffffffffffffff8082111561267557600080fd5b818a0191508a601f83011261268957600080fd5b81358181111561269b5761269b61260c565b604051601f8201601f19908116603f011681019083821181831017156126c3576126c361260c565b816040528281528d60208487010111156126dc57600080fd5b8260208601602083013760009281016020019290925250989b979a5097986060810135985060808101359760a0820135975060c09091013595509350505050565b60008060006060848603121561273257600080fd5b8335925060208401356127448161256d565b915060408401356127548161256d565b809150509250925092565b6000806040838503121561277257600080fd5b823561277d8161256d565b91506020830135801515811461279257600080fd5b809150509250929050565b600080604083850312156127b057600080fd5b8235915060208301356127928161256d565b6000806000806000608086880312156127da57600080fd5b85356127e58161256d565b945060208601356127f58161256d565b935060408601359250606086013567ffffffffffffffff8082111561281957600080fd5b818801915088601f83011261282d57600080fd5b81358181111561283c57600080fd5b89602082850101111561284e57600080fd5b9699959850939650602001949392505050565b6020815261287b6020820183516001600160a01b03169052565b6000602083015161289760408401826001600160a01b03169052565b506040830151606083015260608301516080830152608083015160a083015260a083015160c083015260c08301516101208060e08501526128dc6101408501836124f4565b915060e08501516101006128f38187018315159052565b90950151151593019290925250919050565b6000806040838503121561291857600080fd5b82356129238161256d565b915060208301356127928161256d565b600181811c9082168061294757607f821691505b60208210810361296757634e487b7160e01b600052602260045260246000fd5b50919050565b634e487b7160e01b600052601160045260246000fd5b600082198211156129965761299661296d565b500190565b6000828210156129ad576129ad61296d565b500390565b6000602082840312156129c457600080fd5b81516124ed816124ba565b60208082526010908201526f155394d0519157d49150d2541251539560821b604082015260600190565b600060018201612a0b57612a0b61296d565b5060010190565b6001600160a01b038681168252851660208201526040810184905260806060820181905281018290526000828460a0840137600060a0848401015260a0601f19601f85011683010190509695505050505050565b60208082526031908201527f45524337323155524953746f726167653a2055524920717565727920666f72206040820152703737b732bc34b9ba32b73a103a37b5b2b760791b60608201526080019056fea264697066735822122004dcd982b135853b7dbf01da02a7eb6f8f2f0f7e6674de76200b43c9df26915e64736f6c634300080d0033",
    "linkReferences": {}
  },
  "methodIdentifiers": {
    "approve(address,uint256)": "095ea7b3",
    "balanceOf(address)": "70a08231",
    "cancelJob(uint256)": "1dffa3dc",
    "claimJob(uint256,address,address)": "894fe51c",
    "creatorConfirmJobCompletion(uint256)": "8dd7d7ed",
    "currentTokenId()": "009a9b7b",
    "finishJob(uint256,address)": "b1a9dcb2",
    "getApproved(uint256)": "081812fc",
    "getBalances(address)": "c84aae17",
    "getCurrentTokenId()": "56189236",
    "getJob(uint256)": "bf22c457",
    "getJobStatus(uint256)": "a6c58b63",
    "isApprovedForAll(address,address)": "e985e9c5",
    "mintTo(address,address,string,uint256,uint256,uint256,uint256)": "488ddf22",
    "name()": "06fdde03",
    "owner()": "8da5cb5b",
    "ownerOf(uint256)": "6352211e",
    "renounceOwnership()": "715018a6",
    "safeTransferFrom(address,address,uint256)": "42842e0e",
    "safeTransferFrom(address,address,uint256,bytes)": "b88d4fde",
    "setApprovalForAll(address,bool)": "a22cb465",
    "supportsInterface(bytes4)": "01ffc9a7",
    "symbol()": "95d89b41",
    "tokenURI(uint256)": "c87b56dd",
    "transferFrom(address,address,uint256)": "23b872dd",
    "transferOwnership(address)": "f2fde38b",
    "unClaimJob(uint256)": "8e9be981",
    "withdrawPayments(address)": "31b3eb94"
  },
  "id": 5
}