{
  "abi": [
    {
      "inputs": [
        {
          "internalType": "string",
          "name": "_name",
          "type": "string"
        },
        {
          "internalType": "string",
          "name": "_symbol",
          "type": "string"
        }
      ],
      "stateMutability": "nonpayable",
      "type": "constructor"
    },
    {
      "inputs": [],
      "name": "WithdrawTransfer",
      "type": "error"
    },
    {
      "anonymous": false,
      "inputs": [
        {
          "indexed": true,
          "internalType": "address",
          "name": "owner",
          "type": "address"
        },
        {
          "indexed": true,
          "internalType": "address",
          "name": "spender",
          "type": "address"
        },
        {
          "indexed": true,
          "internalType": "uint256",
          "name": "id",
          "type": "uint256"
        }
      ],
      "name": "Approval",
      "type": "event"
    },
    {
      "anonymous": false,
      "inputs": [
        {
          "indexed": true,
          "internalType": "address",
          "name": "owner",
          "type": "address"
        },
        {
          "indexed": true,
          "internalType": "address",
          "name": "operator",
          "type": "address"
        },
        {
          "indexed": false,
          "internalType": "bool",
          "name": "approved",
          "type": "bool"
        }
      ],
      "name": "ApprovalForAll",
      "type": "event"
    },
    {
      "anonymous": false,
      "inputs": [
        {
          "indexed": true,
          "internalType": "uint256",
          "name": "tokenId",
          "type": "uint256"
        },
        {
          "components": [
            {
              "internalType": "address",
              "name": "recipient",
              "type": "address"
            },
            {
              "internalType": "uint256",
              "name": "executerFee",
              "type": "uint256"
            },
            {
              "internalType": "uint256",
              "name": "creatorFee",
              "type": "uint256"
            },
            {
              "internalType": "uint256",
              "name": "recruiterFee",
              "type": "uint256"
            },
            {
              "internalType": "uint256",
              "name": "deadline",
              "type": "uint256"
            },
            {
              "internalType": "string",
              "name": "tokenURI",
              "type": "string"
            }
          ],
          "indexed": false,
          "internalType": "struct NFT.Job",
          "name": "job",
          "type": "tuple"
        }
      ],
      "name": "JobCreated",
      "type": "event"
    },
    {
      "anonymous": false,
      "inputs": [
        {
          "indexed": true,
          "internalType": "address",
          "name": "previousOwner",
          "type": "address"
        },
        {
          "indexed": true,
          "internalType": "address",
          "name": "newOwner",
          "type": "address"
        }
      ],
      "name": "OwnershipTransferred",
      "type": "event"
    },
    {
      "anonymous": false,
      "inputs": [
        {
          "indexed": true,
          "internalType": "address",
          "name": "from",
          "type": "address"
        },
        {
          "indexed": true,
          "internalType": "address",
          "name": "to",
          "type": "address"
        },
        {
          "indexed": true,
          "internalType": "uint256",
          "name": "id",
          "type": "uint256"
        }
      ],
      "name": "Transfer",
      "type": "event"
    },
    {
      "inputs": [
        {
          "internalType": "address",
          "name": "spender",
          "type": "address"
        },
        {
          "internalType": "uint256",
          "name": "id",
          "type": "uint256"
        }
      ],
      "name": "approve",
      "outputs": [],
      "stateMutability": "nonpayable",
      "type": "function"
    },
    {
      "inputs": [
        {
          "internalType": "address",
          "name": "owner",
          "type": "address"
        }
      ],
      "name": "balanceOf",
      "outputs": [
        {
          "internalType": "uint256",
          "name": "",
          "type": "uint256"
        }
      ],
      "stateMutability": "view",
      "type": "function"
    },
    {
      "inputs": [
        {
          "internalType": "uint256",
          "name": "tokenId",
          "type": "uint256"
        }
      ],
      "name": "cancelJob",
      "outputs": [
        {
          "internalType": "uint256",
          "name": "",
          "type": "uint256"
        }
      ],
      "stateMutability": "nonpayable",
      "type": "function"
    },
    {
      "inputs": [
        {
          "internalType": "uint256",
          "name": "tokenId",
          "type": "uint256"
        },
        {
          "internalType": "address",
          "name": "recruiter",
          "type": "address"
        },
        {
          "internalType": "address",
          "name": "executer",
          "type": "address"
        }
      ],
      "name": "claimJob",
      "outputs": [
        {
          "internalType": "uint256",
          "name": "",
          "type": "uint256"
        }
      ],
      "stateMutability": "nonpayable",
      "type": "function"
    },
    {
      "inputs": [],
      "name": "currentTokenId",
      "outputs": [
        {
          "internalType": "uint256",
          "name": "",
          "type": "uint256"
        }
      ],
      "stateMutability": "view",
      "type": "function"
    },
    {
      "inputs": [
        {
          "internalType": "uint256",
          "name": "tokenId",
          "type": "uint256"
        },
        {
          "internalType": "address",
          "name": "executer",
          "type": "address"
        }
      ],
      "name": "finishJob",
      "outputs": [
        {
          "internalType": "uint256",
          "name": "",
          "type": "uint256"
        }
      ],
      "stateMutability": "nonpayable",
      "type": "function"
    },
    {
      "inputs": [
        {
          "internalType": "uint256",
          "name": "",
          "type": "uint256"
        }
      ],
      "name": "getApproved",
      "outputs": [
        {
          "internalType": "address",
          "name": "",
          "type": "address"
        }
      ],
      "stateMutability": "view",
      "type": "function"
    },
    {
      "inputs": [
        {
          "internalType": "address",
          "name": "payee",
          "type": "address"
        }
      ],
      "name": "getBalances",
      "outputs": [
        {
          "internalType": "uint256",
          "name": "",
          "type": "uint256"
        },
        {
          "internalType": "uint256",
          "name": "",
          "type": "uint256"
        },
        {
          "internalType": "uint256",
          "name": "",
          "type": "uint256"
        }
      ],
      "stateMutability": "view",
      "type": "function"
    },
    {
      "inputs": [],
      "name": "getCurrentTokenId",
      "outputs": [
        {
          "internalType": "uint256",
          "name": "",
          "type": "uint256"
        }
      ],
      "stateMutability": "view",
      "type": "function"
    },
    {
      "inputs": [
        {
          "internalType": "uint256",
          "name": "tokenId",
          "type": "uint256"
        }
      ],
      "name": "getJob",
      "outputs": [
        {
          "components": [
            {
              "internalType": "address",
              "name": "recipient",
              "type": "address"
            },
            {
              "internalType": "uint256",
              "name": "executerFee",
              "type": "uint256"
            },
            {
              "internalType": "uint256",
              "name": "creatorFee",
              "type": "uint256"
            },
            {
              "internalType": "uint256",
              "name": "recruiterFee",
              "type": "uint256"
            },
            {
              "internalType": "uint256",
              "name": "deadline",
              "type": "uint256"
            },
            {
              "internalType": "string",
              "name": "tokenURI",
              "type": "string"
            }
          ],
          "internalType": "struct NFT.Job",
          "name": "",
          "type": "tuple"
        }
      ],
      "stateMutability": "view",
      "type": "function"
    },
    {
      "inputs": [
        {
          "internalType": "uint256",
          "name": "tokenId",
          "type": "uint256"
        }
      ],
      "name": "getJobStatus",
      "outputs": [
        {
          "internalType": "address",
          "name": "",
          "type": "address"
        },
        {
          "internalType": "address",
          "name": "",
          "type": "address"
        },
        {
          "internalType": "address",
          "name": "",
          "type": "address"
        },
        {
          "internalType": "address",
          "name": "",
          "type": "address"
        }
      ],
      "stateMutability": "view",
      "type": "function"
    },
    {
      "inputs": [
        {
          "internalType": "address",
          "name": "",
          "type": "address"
        },
        {
          "internalType": "address",
          "name": "",
          "type": "address"
        }
      ],
      "name": "isApprovedForAll",
      "outputs": [
        {
          "internalType": "bool",
          "name": "",
          "type": "bool"
        }
      ],
      "stateMutability": "view",
      "type": "function"
    },
    {
      "inputs": [
        {
          "internalType": "address",
          "name": "_creator",
          "type": "address"
        },
        {
          "internalType": "address",
          "name": "_recipient",
          "type": "address"
        },
        {
          "internalType": "string",
          "name": "_tokenURI",
          "type": "string"
        },
        {
          "internalType": "uint256",
          "name": "_executerFee",
          "type": "uint256"
        },
        {
          "internalType": "uint256",
          "name": "_recruiterFee",
          "type": "uint256"
        },
        {
          "internalType": "uint256",
          "name": "_creatorFee",
          "type": "uint256"
        },
        {
          "internalType": "uint256",
          "name": "_deadline",
          "type": "uint256"
        }
      ],
      "name": "mintTo",
      "outputs": [
        {
          "internalType": "uint256",
          "name": "",
          "type": "uint256"
        }
      ],
      "stateMutability": "payable",
      "type": "function"
    },
    {
      "inputs": [],
      "name": "name",
      "outputs": [
        {
          "internalType": "string",
          "name": "",
          "type": "string"
        }
      ],
      "stateMutability": "view",
      "type": "function"
    },
    {
      "inputs": [],
      "name": "owner",
      "outputs": [
        {
          "internalType": "address",
          "name": "",
          "type": "address"
        }
      ],
      "stateMutability": "view",
      "type": "function"
    },
    {
      "inputs": [
        {
          "internalType": "uint256",
          "name": "id",
          "type": "uint256"
        }
      ],
      "name": "ownerOf",
      "outputs": [
        {
          "internalType": "address",
          "name": "owner",
          "type": "address"
        }
      ],
      "stateMutability": "view",
      "type": "function"
    },
    {
      "inputs": [],
      "name": "renounceOwnership",
      "outputs": [],
      "stateMutability": "nonpayable",
      "type": "function"
    },
    {
      "inputs": [
        {
          "internalType": "address",
          "name": "from",
          "type": "address"
        },
        {
          "internalType": "address",
          "name": "to",
          "type": "address"
        },
        {
          "internalType": "uint256",
          "name": "id",
          "type": "uint256"
        }
      ],
      "name": "safeTransferFrom",
      "outputs": [],
      "stateMutability": "nonpayable",
      "type": "function"
    },
    {
      "inputs": [
        {
          "internalType": "address",
          "name": "from",
          "type": "address"
        },
        {
          "internalType": "address",
          "name": "to",
          "type": "address"
        },
        {
          "internalType": "uint256",
          "name": "id",
          "type": "uint256"
        },
        {
          "internalType": "bytes",
          "name": "data",
          "type": "bytes"
        }
      ],
      "name": "safeTransferFrom",
      "outputs": [],
      "stateMutability": "nonpayable",
      "type": "function"
    },
    {
      "inputs": [
        {
          "internalType": "address",
          "name": "operator",
          "type": "address"
        },
        {
          "internalType": "bool",
          "name": "approved",
          "type": "bool"
        }
      ],
      "name": "setApprovalForAll",
      "outputs": [],
      "stateMutability": "nonpayable",
      "type": "function"
    },
    {
      "inputs": [
        {
          "internalType": "bytes4",
          "name": "interfaceId",
          "type": "bytes4"
        }
      ],
      "name": "supportsInterface",
      "outputs": [
        {
          "internalType": "bool",
          "name": "",
          "type": "bool"
        }
      ],
      "stateMutability": "view",
      "type": "function"
    },
    {
      "inputs": [],
      "name": "symbol",
      "outputs": [
        {
          "internalType": "string",
          "name": "",
          "type": "string"
        }
      ],
      "stateMutability": "view",
      "type": "function"
    },
    {
      "inputs": [
        {
          "internalType": "uint256",
          "name": "tokenId",
          "type": "uint256"
        }
      ],
      "name": "tokenURI",
      "outputs": [
        {
          "internalType": "string",
          "name": "",
          "type": "string"
        }
      ],
      "stateMutability": "view",
      "type": "function"
    },
    {
      "inputs": [
        {
          "internalType": "address",
          "name": "from",
          "type": "address"
        },
        {
          "internalType": "address",
          "name": "to",
          "type": "address"
        },
        {
          "internalType": "uint256",
          "name": "id",
          "type": "uint256"
        }
      ],
      "name": "transferFrom",
      "outputs": [],
      "stateMutability": "nonpayable",
      "type": "function"
    },
    {
      "inputs": [
        {
          "internalType": "address",
          "name": "newOwner",
          "type": "address"
        }
      ],
      "name": "transferOwnership",
      "outputs": [],
      "stateMutability": "nonpayable",
      "type": "function"
    },
    {
      "inputs": [
        {
          "internalType": "uint256",
          "name": "tokenId",
          "type": "uint256"
        }
      ],
      "name": "unClaimJob",
      "outputs": [
        {
          "internalType": "uint256",
          "name": "",
          "type": "uint256"
        }
      ],
      "stateMutability": "nonpayable",
      "type": "function"
    },
    {
      "inputs": [
        {
          "internalType": "address payable",
          "name": "payee",
          "type": "address"
        }
      ],
      "name": "withdrawPayments",
      "outputs": [],
      "stateMutability": "nonpayable",
      "type": "function"
    }
  ],
  "bytecode": {
    "object": "0x60806040523480156200001157600080fd5b50604051620028d0380380620028d0833981016040819052620000349162000251565b8151829082906200004d906000906020850190620000de565b50805162000063906001906020840190620000de565b505050620000806200007a6200008860201b60201c565b6200008c565b5050620002f7565b3390565b600680546001600160a01b038381166001600160a01b0319831681179093556040519116919082907f8be0079c531659141344cd1fd0a4f28419497f9722a3daafe3b4186f6b6457e090600090a35050565b828054620000ec90620002bb565b90600052602060002090601f0160209004810192826200011057600085556200015b565b82601f106200012b57805160ff19168380011785556200015b565b828001600101855582156200015b579182015b828111156200015b5782518255916020019190600101906200013e565b50620001699291506200016d565b5090565b5b808211156200016957600081556001016200016e565b634e487b7160e01b600052604160045260246000fd5b600082601f830112620001ac57600080fd5b81516001600160401b0380821115620001c957620001c962000184565b604051601f8301601f19908116603f01168101908282118183101715620001f457620001f462000184565b816040528381526020925086838588010111156200021157600080fd5b600091505b8382101562000235578582018301518183018401529082019062000216565b83821115620002475760008385830101525b9695505050505050565b600080604083850312156200026557600080fd5b82516001600160401b03808211156200027d57600080fd5b6200028b868387016200019a565b93506020850151915080821115620002a257600080fd5b50620002b1858286016200019a565b9150509250929050565b600181811c90821680620002d057607f821691505b602082108103620002f157634e487b7160e01b600052602260045260246000fd5b50919050565b6125c980620003076000396000f3fe60806040526004361061019b5760003560e01c8063715018a6116100ec578063b1a9dcb21161008a578063c84aae1711610064578063c84aae17146104db578063c87b56dd14610540578063e985e9c514610560578063f2fde38b1461059b57600080fd5b8063b1a9dcb21461046e578063b88d4fde1461048e578063bf22c457146104ae57600080fd5b80638e9be981116100c65780638e9be981146103c657806395d89b41146103e6578063a22cb465146103fb578063a6c58b631461041b57600080fd5b8063715018a614610373578063894fe51c146103885780638da5cb5b146103a857600080fd5b806323b872dd11610159578063488ddf2211610133578063488ddf221461030b578063561892361461031e5780636352211e1461033357806370a082311461035357600080fd5b806323b872dd146102ab57806331b3eb94146102cb57806342842e0e146102eb57600080fd5b80629a9b7b146101a057806301ffc9a7146101c957806306fdde03146101f9578063081812fc1461021b578063095ea7b3146102695780631dffa3dc1461028b575b600080fd5b3480156101ac57600080fd5b506101b660075481565b6040519081526020015b60405180910390f35b3480156101d557600080fd5b506101e96101e4366004611f07565b6105bb565b60405190151581526020016101c0565b34801561020557600080fd5b5061020e61060d565b6040516101c09190611f78565b34801561022757600080fd5b50610251610236366004611f8b565b6004602052600090815260409020546001600160a01b031681565b6040516001600160a01b0390911681526020016101c0565b34801561027557600080fd5b50610289610284366004611fb9565b61069b565b005b34801561029757600080fd5b506101b66102a6366004611f8b565b610782565b3480156102b757600080fd5b506102896102c6366004611fe5565b6109fc565b3480156102d757600080fd5b506102896102e6366004612026565b610bc3565b3480156102f757600080fd5b50610289610306366004611fe5565b610c44565b6101b6610319366004612059565b610d14565b34801561032a57600080fd5b506007546101b6565b34801561033f57600080fd5b5061025161034e366004611f8b565b610f00565b34801561035f57600080fd5b506101b661036e366004612026565b610f57565b34801561037f57600080fd5b50610289610fba565b34801561039457600080fd5b506101b66103a3366004612154565b610fce565b3480156103b457600080fd5b506006546001600160a01b0316610251565b3480156103d257600080fd5b506101b66103e1366004611f8b565b6111e5565b3480156103f257600080fd5b5061020e6113dd565b34801561040757600080fd5b50610289610416366004612196565b6113ea565b34801561042757600080fd5b5061043b610436366004611f8b565b611456565b604080516001600160a01b03958616815293851660208501529184169183019190915290911660608201526080016101c0565b34801561047a57600080fd5b506101b66104893660046121d4565b6114f9565b34801561049a57600080fd5b506102896104a93660046121f9565b6117cc565b3480156104ba57600080fd5b506104ce6104c9366004611f8b565b611891565b6040516101c09190612298565b3480156104e757600080fd5b506105256104f6366004612026565b6001600160a01b03166000908152600e6020908152604080832054600f83528184205460109093529220549192565b604080519384526020840192909252908201526060016101c0565b34801561054c57600080fd5b5061020e61055b366004611f8b565b6119ea565b34801561056c57600080fd5b506101e961057b3660046122f5565b600560209081526000928352604080842090915290825290205460ff1681565b3480156105a757600080fd5b506102896105b6366004612026565b611ab0565b60006301ffc9a760e01b6001600160e01b0319831614806105ec57506380ac58cd60e01b6001600160e01b03198316145b806106075750635b5e139f60e01b6001600160e01b03198316145b92915050565b6000805461061a90612323565b80601f016020809104026020016040519081016040528092919081815260200182805461064690612323565b80156106935780601f1061066857610100808354040283529160200191610693565b820191906000526020600020905b81548152906001019060200180831161067657829003601f168201915b505050505081565b6000818152600260205260409020546001600160a01b0316338114806106e457506001600160a01b038116600090815260056020908152604080832033845290915290205460ff165b6107265760405162461bcd60e51b815260206004820152600e60248201526d1393d517d055551213d49256915160921b60448201526064015b60405180910390fd5b60008281526004602052604080822080546001600160a01b0319166001600160a01b0387811691821790925591518593918516917f8c5be1e5ebec7d5bd14f71427d1e84f3dd0314c0f7b2291e5b200ac8c7c3b92591a4505050565b6000818152600960209081526040808320815160c08101835281546001600160a01b0316815260018201549381019390935260028101549183019190915260038101546060830152600481015460808301526005810180548493929160a08401916107ec90612323565b80601f016020809104026020016040519081016040528092919081815260200182805461081890612323565b80156108655780601f1061083a57610100808354040283529160200191610865565b820191906000526020600020905b81548152906001019060200180831161084857829003601f168201915b505050919092525050506000848152600260205260409020549091506001600160a01b031633146108d85760405162461bcd60e51b815260206004820152601860248201527f6e6f7420746865206f776e6572206f6620746865206a6f620000000000000000604482015260640161071d565b6000838152600a60205260409020546001600160a01b0316156109355760405162461bcd60e51b81526020600482015260156024820152741a9bd88818dd5c9c995b9d1b1e4818db185a5b5959605a1b604482015260640161071d565b806060015181602001516109499190612373565b81516001600160a01b03166000908152601060205260408120805490919061097290849061238b565b90915550506020810151606082015161098b9190612373565b81516001600160a01b03166000908152600e6020526040812080549091906109b4908490612373565b90915550506000838152600a6020908152604080832080546001600160a01b03199081169091559351600c90925290912080549092166001600160a01b039091161790555090565b6000818152600260205260409020546001600160a01b03848116911614610a525760405162461bcd60e51b815260206004820152600a60248201526957524f4e475f46524f4d60b01b604482015260640161071d565b6001600160a01b038216610a9c5760405162461bcd60e51b81526020600482015260116024820152701253959053125117d49150d25412515395607a1b604482015260640161071d565b336001600160a01b0384161480610ad657506001600160a01b038316600090815260056020908152604080832033845290915290205460ff165b80610af757506000818152600460205260409020546001600160a01b031633145b610b345760405162461bcd60e51b815260206004820152600e60248201526d1393d517d055551213d49256915160921b604482015260640161071d565b6001600160a01b0380841660008181526003602090815260408083208054600019019055938616808352848320805460010190558583526002825284832080546001600160a01b03199081168317909155600490925284832080549092169091559251849392917fddf252ad1be2c89b69c2b068fc378daa952ba7f163c4a11628f55a4df523b3ef91a4505050565b610bcb611b29565b60405147906000906001600160a01b0384169083908381818185875af1925050503d8060008114610c18576040519150601f19603f3d011682016040523d82523d6000602084013e610c1d565b606091505b5050905080610c3f5760405163d23a9e8960e01b815260040160405180910390fd5b505050565b610c4f8383836109fc565b6001600160a01b0382163b1580610cf85750604051630a85bd0160e11b8082523360048301526001600160a01b03858116602484015260448301849052608060648401526000608484015290919084169063150b7a029060a4016020604051808303816000875af1158015610cc8573d6000803e3d6000fd5b505050506040513d601f19601f82011682018060405250810190610cec91906123a2565b6001600160e01b031916145b610c3f5760405162461bcd60e51b815260040161071d906123bf565b60008083610d228688612373565b610d2c9190612373565b9050348114610d745760405162461bcd60e51b81526020600482015260146024820152731a5b98dbdc9c9958dd08199d5b991cc81cd95b9d60621b604482015260640161071d565b6000600760008154610d85906123e9565b91829055509050610d968982611b83565b610da08189611c53565b6001600160a01b038a166000908152600e60205260409020859055610dc58688612373565b601060008b6001600160a01b03166001600160a01b03168152602001908152602001600020819055506040518060c001604052808a6001600160a01b03168152602001888152602001868152602001878152602001858152602001898152506009600083815260200190815260200160002060008201518160000160006101000a8154816001600160a01b0302191690836001600160a01b031602179055506020820151816001015560408201518160020155606082015181600301556080820151816004015560a0820151816005019080519060200190610ea8929190611e58565b50505060008181526009602052604090819020905182917f969e3b69d25fa974cb0e9d367b5955a0ad7a0d08a6d0d658372785c865bf1b2f91610eeb9190612402565b60405180910390a29998505050505050505050565b6000818152600260205260409020546001600160a01b031680610f525760405162461bcd60e51b815260206004820152600a6024820152691393d517d3525395115160b21b604482015260640161071d565b919050565b60006001600160a01b038216610f9e5760405162461bcd60e51b815260206004820152600c60248201526b5a45524f5f4144445245535360a01b604482015260640161071d565b506001600160a01b031660009081526003602052604090205490565b610fc2611b29565b610fcc6000611cde565b565b6000610fd984611d30565b506000848152600a60205260409020546001600160a01b0316156110375760405162461bcd60e51b81526020600482015260156024820152741d1bdad95b88185b1c9958591e4818db185a5b5959605a1b604482015260640161071d565b6000848152600960209081526040808320815160c08101835281546001600160a01b03168152600182015493810193909352600281015491830191909152600381015460608301526004810154608083015260058101805460a08401919061109e90612323565b80601f01602080910402602001604051908101604052809291908181526020018280546110ca90612323565b80156111175780601f106110ec57610100808354040283529160200191611117565b820191906000526020600020905b8154815290600101906020018083116110fa57829003601f168201915b505050919092525050506000868152600b6020908152604080832080546001600160a01b03808b166001600160a01b031992831617909255600a8452918420805491891691909216179055606083015190830151929350909161117a9190612373565b82516001600160a01b03166000908152601060205260408120805492935083929091906111a890849061238b565b909155505081516001600160a01b03166000908152600f6020526040812080548392906111d6908490612373565b90915550959695505050505050565b6000818152600a60205260408120546001600160a01b031633146112575760405162461bcd60e51b815260206004820152602360248201527f796f7520617265206e6f742074686520636c61696d6572206f6e2074686973206044820152623537b160e91b606482015260840161071d565b6000828152600960209081526040808320815160c08101835281546001600160a01b03168152600182015493810193909352600281015491830191909152600381015460608301526004810154608083015260058101805460a0840191906112be90612323565b80601f01602080910402602001604051908101604052809291908181526020018280546112ea90612323565b80156113375780601f1061130c57610100808354040283529160200191611337565b820191906000526020600020905b81548152906001019060200180831161131a57829003601f168201915b50505050508152505090506000816060015182602001516113589190612373565b82516001600160a01b03166000908152600f602052604081208054929350839290919061138690849061238b565b909155505081516001600160a01b0316600090815260106020526040812080548392906113b4908490612373565b9091555050506000838152600a6020526040902080546001600160a01b03191690555090919050565b6001805461061a90612323565b3360008181526005602090815260408083206001600160a01b03871680855290835292819020805460ff191686151590811790915590519081529192917f17307eab39ab6107e8899845ad3d59bd9653f200f220920489ca2b5937696c31910160405180910390a35050565b60008060008061146585611d30565b6114b15760405162461bcd60e51b815260206004820152601b60248201527f717565727920666f72206e6f6e6578697374656e7420746f6b656e0000000000604482015260640161071d565b505050600091825250600a6020908152604080832054600c835281842054600b845282852054600d90945291909320546001600160a01b039384169491841693928316921690565b600061150483611d30565b506000838152600a60205260409020546001600160a01b0316158061154257506000838152600a60205260409020546001600160a01b038381169116145b15611784576000838152600960209081526040808320815160c08101835281546001600160a01b03168152600182015493810193909352600281015491830191909152600381015460608301526004810154608083015260058101805460a0840191906115ae90612323565b80601f01602080910402602001604051908101604052809291908181526020018280546115da90612323565b80156116275780601f106115fc57610100808354040283529160200191611627565b820191906000526020600020905b81548152906001019060200180831161160a57829003601f168201915b50505050508152505090506000816060015182602001516116489190612373565b6000868152600a60205260409020549091506001600160a01b038086169116036116a05781516001600160a01b03166000908152600f60205260408120805483929061169590849061238b565b909155506116cf9050565b81516001600160a01b0316600090815260106020526040812080548392906116c990849061238b565b90915550505b60608201516000868152600b60209081526040808320546001600160a01b03168352600e90915281208054909190611708908490612373565b90915550506020808301516001600160a01b0386166000908152600e9092526040822080549192909161173c908490612373565b9091555050506000848152600a6020908152604080832080546001600160a01b0319908116909155600d90925290912080549091166001600160a01b038516179055506117c5565b60405162461bcd60e51b81526020600482015260166024820152753737ba1030b13632903a37903334b734b9b4103537b160511b604482015260640161071d565b5090919050565b6117d78585856109fc565b6001600160a01b0384163b158061186e5750604051630a85bd0160e11b808252906001600160a01b0386169063150b7a029061181f9033908a908990899089906004016124ee565b6020604051808303816000875af115801561183e573d6000803e3d6000fd5b505050506040513d601f19601f8201168201806040525081019061186291906123a2565b6001600160e01b031916145b61188a5760405162461bcd60e51b815260040161071d906123bf565b5050505050565b6118d36040518060c0016040528060006001600160a01b0316815260200160008152602001600081526020016000815260200160008152602001606081525090565b6118dc82611d30565b6118f85760405162461bcd60e51b815260040161071d90612542565b6000828152600960209081526040808320815160c08101835281546001600160a01b03168152600182015493810193909352600281015491830191909152600381015460608301526004810154608083015260058101805460a08401919061195f90612323565b80601f016020809104026020016040519081016040528092919081815260200182805461198b90612323565b80156119d85780601f106119ad576101008083540402835291602001916119d8565b820191906000526020600020905b8154815290600101906020018083116119bb57829003601f168201915b50505091909252509195945050505050565b60606119f582611d30565b611a115760405162461bcd60e51b815260040161071d90612542565b60008281526008602052604081208054611a2a90612323565b80601f0160208091040260200160405190810160405280929190818152602001828054611a5690612323565b8015611aa35780601f10611a7857610100808354040283529160200191611aa3565b820191906000526020600020905b815481529060010190602001808311611a8657829003601f168201915b5093979650505050505050565b611ab8611b29565b6001600160a01b038116611b1d5760405162461bcd60e51b815260206004820152602660248201527f4f776e61626c653a206e6577206f776e657220697320746865207a65726f206160448201526564647265737360d01b606482015260840161071d565b611b2681611cde565b50565b6006546001600160a01b03163314610fcc5760405162461bcd60e51b815260206004820181905260248201527f4f776e61626c653a2063616c6c6572206973206e6f7420746865206f776e6572604482015260640161071d565b611b8d8282611d4d565b6001600160a01b0382163b1580611c335750604051630a85bd0160e11b80825233600483015260006024830181905260448301849052608060648401526084830152906001600160a01b0384169063150b7a029060a4016020604051808303816000875af1158015611c03573d6000803e3d6000fd5b505050506040513d601f19601f82011682018060405250810190611c2791906123a2565b6001600160e01b031916145b611c4f5760405162461bcd60e51b815260040161071d906123bf565b5050565b611c5c82611d30565b611cbf5760405162461bcd60e51b815260206004820152602e60248201527f45524337323155524953746f726167653a2055524920736574206f66206e6f6e60448201526d32bc34b9ba32b73a103a37b5b2b760911b606482015260840161071d565b60008281526008602090815260409091208251610c3f92840190611e58565b600680546001600160a01b038381166001600160a01b0319831681179093556040519116919082907f8be0079c531659141344cd1fd0a4f28419497f9722a3daafe3b4186f6b6457e090600090a35050565b6000908152600260205260409020546001600160a01b0316151590565b6001600160a01b038216611d975760405162461bcd60e51b81526020600482015260116024820152701253959053125117d49150d25412515395607a1b604482015260640161071d565b6000818152600260205260409020546001600160a01b031615611ded5760405162461bcd60e51b815260206004820152600e60248201526d1053149150511657d3525395115160921b604482015260640161071d565b6001600160a01b038216600081815260036020908152604080832080546001019055848352600290915280822080546001600160a01b0319168417905551839291907fddf252ad1be2c89b69c2b068fc378daa952ba7f163c4a11628f55a4df523b3ef908290a45050565b828054611e6490612323565b90600052602060002090601f016020900481019282611e865760008555611ecc565b82601f10611e9f57805160ff1916838001178555611ecc565b82800160010185558215611ecc579182015b82811115611ecc578251825591602001919060010190611eb1565b50611ed8929150611edc565b5090565b5b80821115611ed85760008155600101611edd565b6001600160e01b031981168114611b2657600080fd5b600060208284031215611f1957600080fd5b8135611f2481611ef1565b9392505050565b6000815180845260005b81811015611f5157602081850181015186830182015201611f35565b81811115611f63576000602083870101525b50601f01601f19169290920160200192915050565b602081526000611f246020830184611f2b565b600060208284031215611f9d57600080fd5b5035919050565b6001600160a01b0381168114611b2657600080fd5b60008060408385031215611fcc57600080fd5b8235611fd781611fa4565b946020939093013593505050565b600080600060608486031215611ffa57600080fd5b833561200581611fa4565b9250602084013561201581611fa4565b929592945050506040919091013590565b60006020828403121561203857600080fd5b8135611f2481611fa4565b634e487b7160e01b600052604160045260246000fd5b600080600080600080600060e0888a03121561207457600080fd5b873561207f81611fa4565b9650602088013561208f81611fa4565b9550604088013567ffffffffffffffff808211156120ac57600080fd5b818a0191508a601f8301126120c057600080fd5b8135818111156120d2576120d2612043565b604051601f8201601f19908116603f011681019083821181831017156120fa576120fa612043565b816040528281528d602084870101111561211357600080fd5b8260208601602083013760009281016020019290925250989b979a5097986060810135985060808101359760a0820135975060c09091013595509350505050565b60008060006060848603121561216957600080fd5b83359250602084013561217b81611fa4565b9150604084013561218b81611fa4565b809150509250925092565b600080604083850312156121a957600080fd5b82356121b481611fa4565b9150602083013580151581146121c957600080fd5b809150509250929050565b600080604083850312156121e757600080fd5b8235915060208301356121c981611fa4565b60008060008060006080868803121561221157600080fd5b853561221c81611fa4565b9450602086013561222c81611fa4565b935060408601359250606086013567ffffffffffffffff8082111561225057600080fd5b818801915088601f83011261226457600080fd5b81358181111561227357600080fd5b89602082850101111561228557600080fd5b9699959850939650602001949392505050565b6020815260018060a01b038251166020820152602082015160408201526040820151606082015260608201516080820152608082015160a0820152600060a083015160c0808401526122ed60e0840182611f2b565b949350505050565b6000806040838503121561230857600080fd5b823561231381611fa4565b915060208301356121c981611fa4565b600181811c9082168061233757607f821691505b60208210810361235757634e487b7160e01b600052602260045260246000fd5b50919050565b634e487b7160e01b600052601160045260246000fd5b600082198211156123865761238661235d565b500190565b60008282101561239d5761239d61235d565b500390565b6000602082840312156123b457600080fd5b8151611f2481611ef1565b60208082526010908201526f155394d0519157d49150d2541251539560821b604082015260600190565b6000600182016123fb576123fb61235d565b5060010190565b602080825282546001600160a01b03168282015260018381015460408401526002840154606084015260038401546080840152600484015460a084015260c080840152600584018054600093929190849080841c8185168061246557607f821691505b868210810361248257634e487b7160e01b84526022600452602484fd5b60e0890182905261010089018180156124a257600181146124b3576124de565b60ff198516825288820195506124de565b60008781526020902060005b858110156124d857815484820152908901908a016124bf565b83019650505b50939a9950505050505050505050565b6001600160a01b038681168252851660208201526040810184905260806060820181905281018290526000828460a0840137600060a0848401015260a0601f19601f85011683010190509695505050505050565b60208082526031908201527f45524337323155524953746f726167653a2055524920717565727920666f72206040820152703737b732bc34b9ba32b73a103a37b5b2b760791b60608201526080019056fea2646970667358221220a48f48f918ad979f2ef5f5db1ca96d60c9cb45e1850c9196a5b8ee1c205d6e2a64736f6c634300080d0033",
    "linkReferences": {}
  },
  "methodIdentifiers": {
    "approve(address,uint256)": "095ea7b3",
    "balanceOf(address)": "70a08231",
    "cancelJob(uint256)": "1dffa3dc",
    "claimJob(uint256,address,address)": "894fe51c",
    "currentTokenId()": "009a9b7b",
    "finishJob(uint256,address)": "b1a9dcb2",
    "getApproved(uint256)": "081812fc",
    "getBalances(address)": "c84aae17",
    "getCurrentTokenId()": "56189236",
    "getJob(uint256)": "bf22c457",
    "getJobStatus(uint256)": "a6c58b63",
    "isApprovedForAll(address,address)": "e985e9c5",
    "mintTo(address,address,string,uint256,uint256,uint256,uint256)": "488ddf22",
    "name()": "06fdde03",
    "owner()": "8da5cb5b",
    "ownerOf(uint256)": "6352211e",
    "renounceOwnership()": "715018a6",
    "safeTransferFrom(address,address,uint256)": "42842e0e",
    "safeTransferFrom(address,address,uint256,bytes)": "b88d4fde",
    "setApprovalForAll(address,bool)": "a22cb465",
    "supportsInterface(bytes4)": "01ffc9a7",
    "symbol()": "95d89b41",
    "tokenURI(uint256)": "c87b56dd",
    "transferFrom(address,address,uint256)": "23b872dd",
    "transferOwnership(address)": "f2fde38b",
    "unClaimJob(uint256)": "8e9be981",
    "withdrawPayments(address)": "31b3eb94"
  },
  "id": 13
}